{
  "_format": "hh-sol-artifact-1",
  "contractName": "Domains",
  "sourceName": "contracts/Domains.sol",
  "abi": [
    {
      "inputs": [
        {
          "internalType": "string",
          "name": "_tld",
          "type": "string"
        }
      ],
      "stateMutability": "payable",
      "type": "constructor"
    },
    {
      "anonymous": false,
      "inputs": [
        {
          "indexed": true,
          "internalType": "address",
          "name": "owner",
          "type": "address"
        },
        {
          "indexed": true,
          "internalType": "address",
          "name": "approved",
          "type": "address"
        },
        {
          "indexed": true,
          "internalType": "uint256",
          "name": "tokenId",
          "type": "uint256"
        }
      ],
      "name": "Approval",
      "type": "event"
    },
    {
      "anonymous": false,
      "inputs": [
        {
          "indexed": true,
          "internalType": "address",
          "name": "owner",
          "type": "address"
        },
        {
          "indexed": true,
          "internalType": "address",
          "name": "operator",
          "type": "address"
        },
        {
          "indexed": false,
          "internalType": "bool",
          "name": "approved",
          "type": "bool"
        }
      ],
      "name": "ApprovalForAll",
      "type": "event"
    },
    {
      "anonymous": false,
      "inputs": [
        {
          "indexed": true,
          "internalType": "address",
          "name": "previousOwner",
          "type": "address"
        },
        {
          "indexed": true,
          "internalType": "address",
          "name": "newOwner",
          "type": "address"
        }
      ],
      "name": "OwnershipTransferred",
      "type": "event"
    },
    {
      "anonymous": false,
      "inputs": [
        {
          "indexed": true,
          "internalType": "address",
          "name": "from",
          "type": "address"
        },
        {
          "indexed": true,
          "internalType": "address",
          "name": "to",
          "type": "address"
        },
        {
          "indexed": true,
          "internalType": "uint256",
          "name": "tokenId",
          "type": "uint256"
        }
      ],
      "name": "Transfer",
      "type": "event"
    },
    {
      "inputs": [
        {
          "internalType": "address",
          "name": "to",
          "type": "address"
        },
        {
          "internalType": "uint256",
          "name": "tokenId",
          "type": "uint256"
        }
      ],
      "name": "approve",
      "outputs": [],
      "stateMutability": "nonpayable",
      "type": "function"
    },
    {
      "inputs": [
        {
          "internalType": "address",
          "name": "owner",
          "type": "address"
        }
      ],
      "name": "balanceOf",
      "outputs": [
        {
          "internalType": "uint256",
          "name": "",
          "type": "uint256"
        }
      ],
      "stateMutability": "view",
      "type": "function"
    },
    {
      "inputs": [
        {
          "internalType": "string",
          "name": "",
          "type": "string"
        }
      ],
      "name": "domains",
      "outputs": [
        {
          "internalType": "address",
          "name": "",
          "type": "address"
        }
      ],
      "stateMutability": "view",
      "type": "function"
    },
    {
      "inputs": [
        {
          "internalType": "string",
          "name": "name",
          "type": "string"
        }
      ],
      "name": "getAddress",
      "outputs": [
        {
          "internalType": "address",
          "name": "",
          "type": "address"
        }
      ],
      "stateMutability": "view",
      "type": "function"
    },
    {
      "inputs": [],
      "name": "getAllNames",
      "outputs": [
        {
          "internalType": "string[]",
          "name": "",
          "type": "string[]"
        }
      ],
      "stateMutability": "view",
      "type": "function"
    },
    {
      "inputs": [
        {
          "internalType": "uint256",
          "name": "tokenId",
          "type": "uint256"
        }
      ],
      "name": "getApproved",
      "outputs": [
        {
          "internalType": "address",
          "name": "",
          "type": "address"
        }
      ],
      "stateMutability": "view",
      "type": "function"
    },
    {
      "inputs": [
        {
          "internalType": "string",
          "name": "name",
          "type": "string"
        }
      ],
      "name": "getRecord",
      "outputs": [
        {
          "internalType": "string",
          "name": "",
          "type": "string"
        }
      ],
      "stateMutability": "view",
      "type": "function"
    },
    {
      "inputs": [
        {
          "internalType": "address",
          "name": "owner",
          "type": "address"
        },
        {
          "internalType": "address",
          "name": "operator",
          "type": "address"
        }
      ],
      "name": "isApprovedForAll",
      "outputs": [
        {
          "internalType": "bool",
          "name": "",
          "type": "bool"
        }
      ],
      "stateMutability": "view",
      "type": "function"
    },
    {
      "inputs": [],
      "name": "name",
      "outputs": [
        {
          "internalType": "string",
          "name": "",
          "type": "string"
        }
      ],
      "stateMutability": "view",
      "type": "function"
    },
    {
      "inputs": [
        {
          "internalType": "uint256",
          "name": "",
          "type": "uint256"
        }
      ],
      "name": "names",
      "outputs": [
        {
          "internalType": "string",
          "name": "",
          "type": "string"
        }
      ],
      "stateMutability": "view",
      "type": "function"
    },
    {
      "inputs": [],
      "name": "owner",
      "outputs": [
        {
          "internalType": "address",
          "name": "",
          "type": "address"
        }
      ],
      "stateMutability": "view",
      "type": "function"
    },
    {
      "inputs": [
        {
          "internalType": "uint256",
          "name": "tokenId",
          "type": "uint256"
        }
      ],
      "name": "ownerOf",
      "outputs": [
        {
          "internalType": "address",
          "name": "",
          "type": "address"
        }
      ],
      "stateMutability": "view",
      "type": "function"
    },
    {
      "inputs": [
        {
          "internalType": "string",
          "name": "name",
          "type": "string"
        }
      ],
      "name": "price",
      "outputs": [
        {
          "internalType": "uint256",
          "name": "",
          "type": "uint256"
        }
      ],
      "stateMutability": "pure",
      "type": "function"
    },
    {
      "inputs": [
        {
          "internalType": "string",
          "name": "",
          "type": "string"
        }
      ],
      "name": "records",
      "outputs": [
        {
          "internalType": "string",
          "name": "",
          "type": "string"
        }
      ],
      "stateMutability": "view",
      "type": "function"
    },
    {
      "inputs": [
        {
          "internalType": "string",
          "name": "name",
          "type": "string"
        }
      ],
      "name": "register",
      "outputs": [],
      "stateMutability": "payable",
      "type": "function"
    },
    {
      "inputs": [],
      "name": "renounceOwnership",
      "outputs": [],
      "stateMutability": "nonpayable",
      "type": "function"
    },
    {
      "inputs": [
        {
          "internalType": "address",
          "name": "from",
          "type": "address"
        },
        {
          "internalType": "address",
          "name": "to",
          "type": "address"
        },
        {
          "internalType": "uint256",
          "name": "tokenId",
          "type": "uint256"
        }
      ],
      "name": "safeTransferFrom",
      "outputs": [],
      "stateMutability": "nonpayable",
      "type": "function"
    },
    {
      "inputs": [
        {
          "internalType": "address",
          "name": "from",
          "type": "address"
        },
        {
          "internalType": "address",
          "name": "to",
          "type": "address"
        },
        {
          "internalType": "uint256",
          "name": "tokenId",
          "type": "uint256"
        },
        {
          "internalType": "bytes",
          "name": "_data",
          "type": "bytes"
        }
      ],
      "name": "safeTransferFrom",
      "outputs": [],
      "stateMutability": "nonpayable",
      "type": "function"
    },
    {
      "inputs": [
        {
          "internalType": "address",
          "name": "operator",
          "type": "address"
        },
        {
          "internalType": "bool",
          "name": "approved",
          "type": "bool"
        }
      ],
      "name": "setApprovalForAll",
      "outputs": [],
      "stateMutability": "nonpayable",
      "type": "function"
    },
    {
      "inputs": [
        {
          "internalType": "string",
          "name": "name",
          "type": "string"
        },
        {
          "internalType": "string",
          "name": "record",
          "type": "string"
        }
      ],
      "name": "setRecord",
      "outputs": [],
      "stateMutability": "nonpayable",
      "type": "function"
    },
    {
      "inputs": [
        {
          "internalType": "bytes4",
          "name": "interfaceId",
          "type": "bytes4"
        }
      ],
      "name": "supportsInterface",
      "outputs": [
        {
          "internalType": "bool",
          "name": "",
          "type": "bool"
        }
      ],
      "stateMutability": "view",
      "type": "function"
    },
    {
      "inputs": [],
      "name": "symbol",
      "outputs": [
        {
          "internalType": "string",
          "name": "",
          "type": "string"
        }
      ],
      "stateMutability": "view",
      "type": "function"
    },
    {
      "inputs": [],
      "name": "tld",
      "outputs": [
        {
          "internalType": "string",
          "name": "",
          "type": "string"
        }
      ],
      "stateMutability": "view",
      "type": "function"
    },
    {
      "inputs": [
        {
          "internalType": "uint256",
          "name": "tokenId",
          "type": "uint256"
        }
      ],
      "name": "tokenURI",
      "outputs": [
        {
          "internalType": "string",
          "name": "",
          "type": "string"
        }
      ],
      "stateMutability": "view",
      "type": "function"
    },
    {
      "inputs": [
        {
          "internalType": "address",
          "name": "from",
          "type": "address"
        },
        {
          "internalType": "address",
          "name": "to",
          "type": "address"
        },
        {
          "internalType": "uint256",
          "name": "tokenId",
          "type": "uint256"
        }
      ],
      "name": "transferFrom",
      "outputs": [],
      "stateMutability": "nonpayable",
      "type": "function"
    },
    {
      "inputs": [
        {
          "internalType": "address",
          "name": "newOwner",
          "type": "address"
        }
      ],
      "name": "transferOwnership",
      "outputs": [],
      "stateMutability": "nonpayable",
      "type": "function"
    },
    {
      "inputs": [],
      "name": "withdraw",
      "outputs": [],
      "stateMutability": "nonpayable",
      "type": "function"
    }
  ],
  "bytecode": "0x6080604052604051806108a0016040528061086b8152602001620058e861086b9139600a90805190602001906200003892919062000373565b506040518060400160405280600d81526020017f3c2f746578743e3c2f7376673e00000000000000000000000000000000000000815250600b90805190602001906200008692919062000373565b5060405162006153380380620061538339818101604052810190620000ac9190620005c0565b6040518060400160405280601381526020017f416c70616361204e616d652053657276696365000000000000000000000000008152506040518060400160405280600381526020017f414e530000000000000000000000000000000000000000000000000000000000815250620001386200012c620001d860201b60201c565b620001e060201b60201c565b81600190805190602001906200015092919062000373565b5080600290805190602001906200016992919062000373565b50505080600990805190602001906200018492919062000373565b50620001d16040518060400160405280601881526020017f2573206e616d652073657276696365206465706c6f796564000000000000000081525082620002a460201b62001d6e1760201c565b506200070e565b600033905090565b60008060009054906101000a900473ffffffffffffffffffffffffffffffffffffffff169050816000806101000a81548173ffffffffffffffffffffffffffffffffffffffff021916908373ffffffffffffffffffffffffffffffffffffffff1602179055508173ffffffffffffffffffffffffffffffffffffffff168173ffffffffffffffffffffffffffffffffffffffff167f8be0079c531659141344cd1fd0a4f28419497f9722a3daafe3b4186f6b6457e060405160405180910390a35050565b620003468282604051602401620002bd9291906200066e565b6040516020818303038152906040527f4b5c4277000000000000000000000000000000000000000000000000000000007bffffffffffffffffffffffffffffffffffffffffffffffffffffffff19166020820180517bffffffffffffffffffffffffffffffffffffffffffffffffffffffff83818316178352505050506200034a60201b60201c565b5050565b60008151905060006a636f6e736f6c652e6c6f679050602083016000808483855afa5050505050565b8280546200038190620006d8565b90600052602060002090601f016020900481019282620003a55760008555620003f1565b82601f10620003c057805160ff1916838001178555620003f1565b82800160010185558215620003f1579182015b82811115620003f0578251825591602001919060010190620003d3565b5b50905062000400919062000404565b5090565b5b808211156200041f57600081600090555060010162000405565b5090565b6000604051905090565b600080fd5b600080fd5b600080fd5b600080fd5b6000601f19601f8301169050919050565b7f4e487b7100000000000000000000000000000000000000000000000000000000600052604160045260246000fd5b6200048c8262000441565b810181811067ffffffffffffffff82111715620004ae57620004ad62000452565b5b80604052505050565b6000620004c362000423565b9050620004d1828262000481565b919050565b600067ffffffffffffffff821115620004f457620004f362000452565b5b620004ff8262000441565b9050602081019050919050565b60005b838110156200052c5780820151818401526020810190506200050f565b838111156200053c576000848401525b50505050565b6000620005596200055384620004d6565b620004b7565b9050828152602081018484840111156200057857620005776200043c565b5b620005858482856200050c565b509392505050565b600082601f830112620005a557620005a462000437565b5b8151620005b784826020860162000542565b91505092915050565b600060208284031215620005d957620005d86200042d565b5b600082015167ffffffffffffffff811115620005fa57620005f962000432565b5b62000608848285016200058d565b91505092915050565b600081519050919050565b600082825260208201905092915050565b60006200063a8262000611565b6200064681856200061c565b9350620006588185602086016200050c565b620006638162000441565b840191505092915050565b600060408201905081810360008301526200068a81856200062d565b90508181036020830152620006a081846200062d565b90509392505050565b7f4e487b7100000000000000000000000000000000000000000000000000000000600052602260045260246000fd5b60006002820490506001821680620006f157607f821691505b60208210811415620007085762000707620006a9565b5b50919050565b6151ca806200071e6000396000f3fe60806040526004361061019c5760003560e01c806370a08231116100ec578063c1880a981161008a578063f2c298be11610064578063f2c298be14610610578063f2fde38b1461062c578063fb825e5f14610655578063fe2c6198146106805761019c565b8063c1880a981461056d578063c87b56dd14610596578063e985e9c5146105d35761019c565b806395d89b41116100c657806395d89b41146104b3578063a22cb465146104de578063b88d4fde14610507578063bf40fac1146105305761019c565b806370a0823114610434578063715018a6146104715780638da5cb5b146104885761019c565b8063264492351161015957806342842e0e1161013357806342842e0e146103545780634622ab031461037d578063541e771d146103ba5780636352211e146103f75761019c565b806326449235146102d55780632d551432146103125780633ccfd60b1461033d5761019c565b806301ffc9a7146101a157806306fdde03146101de578063081812fc14610209578063095ea7b31461024657806311dd88451461026f57806323b872dd146102ac575b600080fd5b3480156101ad57600080fd5b506101c860048036038101906101c39190613317565b6106bd565b6040516101d5919061335f565b60405180910390f35b3480156101ea57600080fd5b506101f361079f565b6040516102009190613413565b60405180910390f35b34801561021557600080fd5b50610230600480360381019061022b919061346b565b610831565b60405161023d91906134d9565b60405180910390f35b34801561025257600080fd5b5061026d60048036038101906102689190613520565b6108b6565b005b34801561027b57600080fd5b50610296600480360381019061029191906135c5565b6109ce565b6040516102a39190613413565b60405180910390f35b3480156102b857600080fd5b506102d360048036038101906102ce9190613612565b610a81565b005b3480156102e157600080fd5b506102fc60048036038101906102f79190613795565b610ae1565b60405161030991906134d9565b60405180910390f35b34801561031e57600080fd5b50610327610b2a565b6040516103349190613413565b60405180910390f35b34801561034957600080fd5b50610352610bb8565b005b34801561036057600080fd5b5061037b60048036038101906103769190613612565b610ce9565b005b34801561038957600080fd5b506103a4600480360381019061039f919061346b565b610d09565b6040516103b19190613413565b60405180910390f35b3480156103c657600080fd5b506103e160048036038101906103dc9190613795565b610da9565b6040516103ee9190613413565b60405180910390f35b34801561040357600080fd5b5061041e6004803603810190610419919061346b565b610e5f565b60405161042b91906134d9565b60405180910390f35b34801561044057600080fd5b5061045b600480360381019061045691906137de565b610f11565b604051610468919061381a565b60405180910390f35b34801561047d57600080fd5b50610486610fc9565b005b34801561049457600080fd5b5061049d611051565b6040516104aa91906134d9565b60405180910390f35b3480156104bf57600080fd5b506104c861107a565b6040516104d59190613413565b60405180910390f35b3480156104ea57600080fd5b5061050560048036038101906105009190613861565b61110c565b005b34801561051357600080fd5b5061052e60048036038101906105299190613942565b611122565b005b34801561053c57600080fd5b50610557600480360381019061055291906135c5565b611184565b60405161056491906134d9565b60405180910390f35b34801561057957600080fd5b50610594600480360381019061058f91906139c5565b6111cf565b005b3480156105a257600080fd5b506105bd60048036038101906105b8919061346b565b6112b3565b6040516105ca9190613413565b60405180910390f35b3480156105df57600080fd5b506105fa60048036038101906105f59190613a46565b611405565b604051610607919061335f565b60405180910390f35b61062a600480360381019061062591906135c5565b611499565b005b34801561063857600080fd5b50610653600480360381019061064e91906137de565b6119bc565b005b34801561066157600080fd5b5061066a611ab4565b6040516106779190613b92565b60405180910390f35b34801561068c57600080fd5b506106a760048036038101906106a291906135c5565b611c92565b6040516106b4919061381a565b60405180910390f35b60007f80ac58cd000000000000000000000000000000000000000000000000000000007bffffffffffffffffffffffffffffffffffffffffffffffffffffffff1916827bffffffffffffffffffffffffffffffffffffffffffffffffffffffff1916148061078857507f5b5e139f000000000000000000000000000000000000000000000000000000007bffffffffffffffffffffffffffffffffffffffffffffffffffffffff1916827bffffffffffffffffffffffffffffffffffffffffffffffffffffffff1916145b80610798575061079782611e0a565b5b9050919050565b6060600180546107ae90613be3565b80601f01602080910402602001604051908101604052809291908181526020018280546107da90613be3565b80156108275780601f106107fc57610100808354040283529160200191610827565b820191906000526020600020905b81548152906001019060200180831161080a57829003601f168201915b5050505050905090565b600061083c82611e74565b61087b576040517f08c379a000000000000000000000000000000000000000000000000000000000815260040161087290613c87565b60405180910390fd5b6005600083815260200190815260200160002060009054906101000a900473ffffffffffffffffffffffffffffffffffffffff169050919050565b60006108c182610e5f565b90508073ffffffffffffffffffffffffffffffffffffffff168373ffffffffffffffffffffffffffffffffffffffff161415610932576040517f08c379a000000000000000000000000000000000000000000000000000000000815260040161092990613d19565b60405180910390fd5b8073ffffffffffffffffffffffffffffffffffffffff16610951611ee0565b73ffffffffffffffffffffffffffffffffffffffff161480610980575061097f8161097a611ee0565b611405565b5b6109bf576040517f08c379a00000000000000000000000000000000000000000000000000000000081526004016109b690613dab565b60405180910390fd5b6109c98383611ee8565b505050565b6060600d83836040516109e2929190613dfb565b908152602001604051809103902080546109fb90613be3565b80601f0160208091040260200160405190810160405280929190818152602001828054610a2790613be3565b8015610a745780601f10610a4957610100808354040283529160200191610a74565b820191906000526020600020905b815481529060010190602001808311610a5757829003601f168201915b5050505050905092915050565b610a92610a8c611ee0565b82611fa1565b610ad1576040517f08c379a0000000000000000000000000000000000000000000000000000000008152600401610ac890613e86565b60405180910390fd5b610adc83838361207f565b505050565b600c818051602081018201805184825260208301602085012081835280955050505050506000915054906101000a900473ffffffffffffffffffffffffffffffffffffffff1681565b60098054610b3790613be3565b80601f0160208091040260200160405190810160405280929190818152602001828054610b6390613be3565b8015610bb05780601f10610b8557610100808354040283529160200191610bb0565b820191906000526020600020905b815481529060010190602001808311610b9357829003601f168201915b505050505081565b610bc0611ee0565b73ffffffffffffffffffffffffffffffffffffffff16610bde611051565b73ffffffffffffffffffffffffffffffffffffffff1614610c34576040517f08c379a0000000000000000000000000000000000000000000000000000000008152600401610c2b90613ef2565b60405180910390fd5b600047905060003373ffffffffffffffffffffffffffffffffffffffff1682604051610c5f90613f43565b60006040518083038185875af1925050503d8060008114610c9c576040519150601f19603f3d011682016040523d82523d6000602084013e610ca1565b606091505b5050905080610ce5576040517f08c379a0000000000000000000000000000000000000000000000000000000008152600401610cdc90613fa4565b60405180910390fd5b5050565b610d0483838360405180602001604052806000815250611122565b505050565b600e6020528060005260406000206000915090508054610d2890613be3565b80601f0160208091040260200160405190810160405280929190818152602001828054610d5490613be3565b8015610da15780601f10610d7657610100808354040283529160200191610da1565b820191906000526020600020905b815481529060010190602001808311610d8457829003601f168201915b505050505081565b600d818051602081018201805184825260208301602085012081835280955050505050506000915090508054610dde90613be3565b80601f0160208091040260200160405190810160405280929190818152602001828054610e0a90613be3565b8015610e575780601f10610e2c57610100808354040283529160200191610e57565b820191906000526020600020905b815481529060010190602001808311610e3a57829003601f168201915b505050505081565b6000806003600084815260200190815260200160002060009054906101000a900473ffffffffffffffffffffffffffffffffffffffff169050600073ffffffffffffffffffffffffffffffffffffffff168173ffffffffffffffffffffffffffffffffffffffff161415610f08576040517f08c379a0000000000000000000000000000000000000000000000000000000008152600401610eff90614036565b60405180910390fd5b80915050919050565b60008073ffffffffffffffffffffffffffffffffffffffff168273ffffffffffffffffffffffffffffffffffffffff161415610f82576040517f08c379a0000000000000000000000000000000000000000000000000000000008152600401610f79906140c8565b60405180910390fd5b600460008373ffffffffffffffffffffffffffffffffffffffff1673ffffffffffffffffffffffffffffffffffffffff168152602001908152602001600020549050919050565b610fd1611ee0565b73ffffffffffffffffffffffffffffffffffffffff16610fef611051565b73ffffffffffffffffffffffffffffffffffffffff1614611045576040517f08c379a000000000000000000000000000000000000000000000000000000000815260040161103c90613ef2565b60405180910390fd5b61104f60006122e6565b565b60008060009054906101000a900473ffffffffffffffffffffffffffffffffffffffff16905090565b60606002805461108990613be3565b80601f01602080910402602001604051908101604052809291908181526020018280546110b590613be3565b80156111025780601f106110d757610100808354040283529160200191611102565b820191906000526020600020905b8154815290600101906020018083116110e557829003601f168201915b5050505050905090565b61111e611117611ee0565b83836123aa565b5050565b61113361112d611ee0565b83611fa1565b611172576040517f08c379a000000000000000000000000000000000000000000000000000000000815260040161116990613e86565b60405180910390fd5b61117e84848484612517565b50505050565b6000600c8383604051611198929190613dfb565b908152602001604051809103902060009054906101000a900473ffffffffffffffffffffffffffffffffffffffff16905092915050565b3373ffffffffffffffffffffffffffffffffffffffff16600c85856040516111f8929190613dfb565b908152602001604051809103902060009054906101000a900473ffffffffffffffffffffffffffffffffffffffff1673ffffffffffffffffffffffffffffffffffffffff161461127d576040517f08c379a000000000000000000000000000000000000000000000000000000000815260040161127490614134565b60405180910390fd5b8181600d8686604051611291929190613dfb565b908152602001604051809103902091906112ac929190613182565b5050505050565b60606112be82611e74565b6112fd576040517f08c379a00000000000000000000000000000000000000000000000000000000081526004016112f4906141c6565b60405180910390fd5b600060076000848152602001908152602001600020805461131d90613be3565b80601f016020809104026020016040519081016040528092919081815260200182805461134990613be3565b80156113965780601f1061136b57610100808354040283529160200191611396565b820191906000526020600020905b81548152906001019060200180831161137957829003601f168201915b5050505050905060006113a7612573565b90506000815114156113bd578192505050611400565b6000825111156113f25780826040516020016113da929190614217565b60405160208183030381529060405292505050611400565b6113fb8461258a565b925050505b919050565b6000600660008473ffffffffffffffffffffffffffffffffffffffff1673ffffffffffffffffffffffffffffffffffffffff16815260200190815260200160002060008373ffffffffffffffffffffffffffffffffffffffff1673ffffffffffffffffffffffffffffffffffffffff16815260200190815260200160002060009054906101000a900460ff16905092915050565b600073ffffffffffffffffffffffffffffffffffffffff16600c83836040516114c3929190613dfb565b908152602001604051809103902060009054906101000a900473ffffffffffffffffffffffffffffffffffffffff1673ffffffffffffffffffffffffffffffffffffffff1614611548576040517f08c379a000000000000000000000000000000000000000000000000000000000815260040161153f90614287565b60405180910390fd5b600361159783838080601f016020809104026020016040519081016040528093929190818152602001838380828437600081840152601f19601f82011690508083019250505050505050612631565b101580156115f25750600a6115ef83838080601f016020809104026020016040519081016040528093929190818152602001838380828437600081840152601f19601f82011690508083019250505050505050612631565b11155b611631576040517f08c379a0000000000000000000000000000000000000000000000000000000008152600401611628906142f3565b60405180910390fd5b600061163d8383611c92565b905080341015611682576040517f08c379a00000000000000000000000000000000000000000000000000000000081526004016116799061435f565b60405180910390fd5b60008383600960405160200161169a9392919061445f565b60405160208183030381529060405290506000600a82600b6040516020016116c493929190614490565b604051602081830303815290604052905060006116e160086127e6565b9050600061173287878080601f016020809104026020016040519081016040528093929190818152602001838380828437600081840152601f19601f82011690508083019250505050505050612631565b9050600061173f826127f4565b90506118336040518060600160405280603181526020016150eb6031913989898080601f016020809104026020016040519081016040528093929190818152602001838380828437600081840152601f19601f82011690508083019250505050505050600980546117af90613be3565b80601f01602080910402602001604051908101604052809291908181526020018280546117db90613be3565b80156118285780601f106117fd57610100808354040283529160200191611828565b820191906000526020600020905b81548152906001019060200180831161180b57829003601f168201915b505050505086612955565b600061186986611842876129f7565b846040516020016118559392919061463d565b6040516020818303038152906040526129f7565b905060008160405160200161187e91906146e6565b60405160208183030381529060405290506118b06040518060600160405280603981526020016150b260399139612b8f565b6118ef6040518060400160405280600e81526020017f46696e616c20746f6b656e55524900000000000000000000000000000000000081525082611d6e565b61191060405180606001604052806039815260200161511c60399139612b8f565b61191a3386612c28565b6119248582612c46565b33600c8b8b604051611937929190613dfb565b908152602001604051809103902060006101000a81548173ffffffffffffffffffffffffffffffffffffffff021916908373ffffffffffffffffffffffffffffffffffffffff1602179055508989600e600088815260200190815260200160002091906119a5929190613182565b506119b06008612cba565b50505050505050505050565b6119c4611ee0565b73ffffffffffffffffffffffffffffffffffffffff166119e2611051565b73ffffffffffffffffffffffffffffffffffffffff1614611a38576040517f08c379a0000000000000000000000000000000000000000000000000000000008152600401611a2f90613ef2565b60405180910390fd5b600073ffffffffffffffffffffffffffffffffffffffff168173ffffffffffffffffffffffffffffffffffffffff161415611aa8576040517f08c379a0000000000000000000000000000000000000000000000000000000008152600401611a9f9061477a565b60405180910390fd5b611ab1816122e6565b50565b6060611af46040518060400160405280601f81526020017f47657474696e6720616c6c206e616d65732066726f6d20636f6e747261637400815250612b8f565b6000611b0060086127e6565b67ffffffffffffffff811115611b1957611b1861366a565b5b604051908082528060200260200182016040528015611b4c57816020015b6060815260200190600190039081611b375790505b50905060005b611b5c60086127e6565b811015611c8a57600e60008281526020019081526020016000208054611b8190613be3565b80601f0160208091040260200160405190810160405280929190818152602001828054611bad90613be3565b8015611bfa5780601f10611bcf57610100808354040283529160200191611bfa565b820191906000526020600020905b815481529060010190602001808311611bdd57829003601f168201915b5050505050828281518110611c1257611c1161479a565b5b6020026020010181905250611c776040518060400160405280601781526020017f4e616d6520666f7220746f6b656e20256420697320257300000000000000000081525082848481518110611c6a57611c6961479a565b5b6020026020010151612cd0565b8080611c82906147f8565b915050611b52565b508091505090565b600080611ce284848080601f016020809104026020016040519081016040528093929190818152602001838380828437600081840152601f19601f82011690508083019250505050505050612631565b905060008111611d27576040517f08c379a0000000000000000000000000000000000000000000000000000000008152600401611d1e906148b3565b60405180910390fd5b6003811415611d41576706f05b59d3b20000915050611d68565b6004811415611d5b57670429d069189e0000915050611d68565b67016345785d8a00009150505b92915050565b611e068282604051602401611d849291906148d3565b6040516020818303038152906040527f4b5c4277000000000000000000000000000000000000000000000000000000007bffffffffffffffffffffffffffffffffffffffffffffffffffffffff19166020820180517bffffffffffffffffffffffffffffffffffffffffffffffffffffffff8381831617835250505050612d6f565b5050565b60007f01ffc9a7000000000000000000000000000000000000000000000000000000007bffffffffffffffffffffffffffffffffffffffffffffffffffffffff1916827bffffffffffffffffffffffffffffffffffffffffffffffffffffffff1916149050919050565b60008073ffffffffffffffffffffffffffffffffffffffff166003600084815260200190815260200160002060009054906101000a900473ffffffffffffffffffffffffffffffffffffffff1673ffffffffffffffffffffffffffffffffffffffff1614159050919050565b600033905090565b816005600083815260200190815260200160002060006101000a81548173ffffffffffffffffffffffffffffffffffffffff021916908373ffffffffffffffffffffffffffffffffffffffff160217905550808273ffffffffffffffffffffffffffffffffffffffff16611f5b83610e5f565b73ffffffffffffffffffffffffffffffffffffffff167f8c5be1e5ebec7d5bd14f71427d1e84f3dd0314c0f7b2291e5b200ac8c7c3b92560405160405180910390a45050565b6000611fac82611e74565b611feb576040517f08c379a0000000000000000000000000000000000000000000000000000000008152600401611fe29061497c565b60405180910390fd5b6000611ff683610e5f565b90508073ffffffffffffffffffffffffffffffffffffffff168473ffffffffffffffffffffffffffffffffffffffff16148061206557508373ffffffffffffffffffffffffffffffffffffffff1661204d84610831565b73ffffffffffffffffffffffffffffffffffffffff16145b8061207657506120758185611405565b5b91505092915050565b8273ffffffffffffffffffffffffffffffffffffffff1661209f82610e5f565b73ffffffffffffffffffffffffffffffffffffffff16146120f5576040517f08c379a00000000000000000000000000000000000000000000000000000000081526004016120ec90614a0e565b60405180910390fd5b600073ffffffffffffffffffffffffffffffffffffffff168273ffffffffffffffffffffffffffffffffffffffff161415612165576040517f08c379a000000000000000000000000000000000000000000000000000000000815260040161215c90614aa0565b60405180910390fd5b612170838383612d98565b61217b600082611ee8565b6001600460008573ffffffffffffffffffffffffffffffffffffffff1673ffffffffffffffffffffffffffffffffffffffff16815260200190815260200160002060008282546121cb9190614ac0565b925050819055506001600460008473ffffffffffffffffffffffffffffffffffffffff1673ffffffffffffffffffffffffffffffffffffffff16815260200190815260200160002060008282546122229190614af4565b92505081905550816003600083815260200190815260200160002060006101000a81548173ffffffffffffffffffffffffffffffffffffffff021916908373ffffffffffffffffffffffffffffffffffffffff160217905550808273ffffffffffffffffffffffffffffffffffffffff168473ffffffffffffffffffffffffffffffffffffffff167fddf252ad1be2c89b69c2b068fc378daa952ba7f163c4a11628f55a4df523b3ef60405160405180910390a46122e1838383612d9d565b505050565b60008060009054906101000a900473ffffffffffffffffffffffffffffffffffffffff169050816000806101000a81548173ffffffffffffffffffffffffffffffffffffffff021916908373ffffffffffffffffffffffffffffffffffffffff1602179055508173ffffffffffffffffffffffffffffffffffffffff168173ffffffffffffffffffffffffffffffffffffffff167f8be0079c531659141344cd1fd0a4f28419497f9722a3daafe3b4186f6b6457e060405160405180910390a35050565b8173ffffffffffffffffffffffffffffffffffffffff168373ffffffffffffffffffffffffffffffffffffffff161415612419576040517f08c379a000000000000000000000000000000000000000000000000000000000815260040161241090614b96565b60405180910390fd5b80600660008573ffffffffffffffffffffffffffffffffffffffff1673ffffffffffffffffffffffffffffffffffffffff16815260200190815260200160002060008473ffffffffffffffffffffffffffffffffffffffff1673ffffffffffffffffffffffffffffffffffffffff16815260200190815260200160002060006101000a81548160ff0219169083151502179055508173ffffffffffffffffffffffffffffffffffffffff168373ffffffffffffffffffffffffffffffffffffffff167f17307eab39ab6107e8899845ad3d59bd9653f200f220920489ca2b5937696c318360405161250a919061335f565b60405180910390a3505050565b61252284848461207f565b61252e84848484612da2565b61256d576040517f08c379a000000000000000000000000000000000000000000000000000000000815260040161256490614c28565b60405180910390fd5b50505050565b606060405180602001604052806000815250905090565b606061259582611e74565b6125d4576040517f08c379a00000000000000000000000000000000000000000000000000000000081526004016125cb90614cba565b60405180910390fd5b60006125de612573565b905060008151116125fe5760405180602001604052806000815250612629565b80612608846127f4565b604051602001612619929190614217565b6040516020818303038152906040525b915050919050565b60008060008084519050600092505b808210156127db57600085838151811061265d5761265c61479a565b5b602001015160f81c60f81b9050608060f81b817effffffffffffffffffffffffffffffffffffffffffffffffffffffffffffff191610156126ac576001836126a59190614af4565b92506127c7565b60e060f81b817effffffffffffffffffffffffffffffffffffffffffffffffffffffffffffff191610156126ee576002836126e79190614af4565b92506127c6565b60f060f81b817effffffffffffffffffffffffffffffffffffffffffffffffffffffffffffff19161015612730576003836127299190614af4565b92506127c5565b60f8801b817effffffffffffffffffffffffffffffffffffffffffffffffffffffffffffff191610156127715760048361276a9190614af4565b92506127c4565b60fc60f81b817effffffffffffffffffffffffffffffffffffffffffffffffffffffffffffff191610156127b3576005836127ac9190614af4565b92506127c3565b6006836127c09190614af4565b92505b5b5b5b5b5082806127d3906147f8565b935050612640565b829350505050919050565b600081600001549050919050565b6060600082141561283c576040518060400160405280600181526020017f30000000000000000000000000000000000000000000000000000000000000008152509050612950565b600082905060005b6000821461286e578080612857906147f8565b915050600a826128679190614d09565b9150612844565b60008167ffffffffffffffff81111561288a5761288961366a565b5b6040519080825280601f01601f1916602001820160405280156128bc5781602001600182028036833780820191505090505b5090505b60008514612949576001826128d59190614ac0565b9150600a856128e49190614d3a565b60306128f09190614af4565b60f81b8183815181106129065761290561479a565b5b60200101907effffffffffffffffffffffffffffffffffffffffffffffffffffffffffffff1916908160001a905350600a856129429190614d09565b94506128c0565b8093505050505b919050565b6129f18484848460405160240161296f9493929190614d6b565b6040516020818303038152906040527f9fd009f5000000000000000000000000000000000000000000000000000000007bffffffffffffffffffffffffffffffffffffffffffffffffffffffff19166020820180517bffffffffffffffffffffffffffffffffffffffffffffffffffffffff8381831617835250505050612d6f565b50505050565b60606000825190506000811415612a205760405180602001604052806000815250915050612b8a565b60006003600283612a319190614af4565b612a3b9190614d09565b6004612a479190614dc5565b90506000602082612a589190614af4565b67ffffffffffffffff811115612a7157612a7061366a565b5b6040519080825280601f01601f191660200182016040528015612aa35781602001600182028036833780820191505090505b5090506000604051806060016040528060408152602001615155604091399050600181016020830160005b86811015612b475760038101905062ffffff818a015116603f8160121c168401518060081b905060ff603f83600c1c1686015116810190508060081b905060ff603f8360061c1686015116810190508060081b905060ff603f831686015116810190508060e01b90508084526004840193505050612ace565b506003860660018114612b615760028114612b7157612b7c565b613d3d60f01b6002830352612b7c565b603d60f81b60018303525b508484525050819450505050505b919050565b612c2581604051602401612ba39190613413565b6040516020818303038152906040527f41304fac000000000000000000000000000000000000000000000000000000007bffffffffffffffffffffffffffffffffffffffffffffffffffffffff19166020820180517bffffffffffffffffffffffffffffffffffffffffffffffffffffffff8381831617835250505050612d6f565b50565b612c42828260405180602001604052806000815250612f2a565b5050565b612c4f82611e74565b612c8e576040517f08c379a0000000000000000000000000000000000000000000000000000000008152600401612c8590614e91565b60405180910390fd5b80600760008481526020019081526020016000209080519060200190612cb5929190613208565b505050565b6001816000016000828254019250508190555050565b612d6a838383604051602401612ce893929190614eb1565b6040516020818303038152906040527fa3f5c739000000000000000000000000000000000000000000000000000000007bffffffffffffffffffffffffffffffffffffffffffffffffffffffff19166020820180517bffffffffffffffffffffffffffffffffffffffffffffffffffffffff8381831617835250505050612d6f565b505050565b60008151905060006a636f6e736f6c652e6c6f679050602083016000808483855afa5050505050565b505050565b505050565b6000612dc38473ffffffffffffffffffffffffffffffffffffffff16612f85565b15612f1d578373ffffffffffffffffffffffffffffffffffffffff1663150b7a02612dec611ee0565b8786866040518563ffffffff1660e01b8152600401612e0e9493929190614f4b565b6020604051808303816000875af1925050508015612e4a57506040513d601f19601f82011682018060405250810190612e479190614fac565b60015b612ecd573d8060008114612e7a576040519150601f19603f3d011682016040523d82523d6000602084013e612e7f565b606091505b50600081511415612ec5576040517f08c379a0000000000000000000000000000000000000000000000000000000008152600401612ebc90614c28565b60405180910390fd5b805181602001fd5b63150b7a0260e01b7bffffffffffffffffffffffffffffffffffffffffffffffffffffffff1916817bffffffffffffffffffffffffffffffffffffffffffffffffffffffff191614915050612f22565b600190505b949350505050565b612f348383612fa8565b612f416000848484612da2565b612f80576040517f08c379a0000000000000000000000000000000000000000000000000000000008152600401612f7790614c28565b60405180910390fd5b505050565b6000808273ffffffffffffffffffffffffffffffffffffffff163b119050919050565b600073ffffffffffffffffffffffffffffffffffffffff168273ffffffffffffffffffffffffffffffffffffffff161415613018576040517f08c379a000000000000000000000000000000000000000000000000000000000815260040161300f90615025565b60405180910390fd5b61302181611e74565b15613061576040517f08c379a000000000000000000000000000000000000000000000000000000000815260040161305890615091565b60405180910390fd5b61306d60008383612d98565b6001600460008473ffffffffffffffffffffffffffffffffffffffff1673ffffffffffffffffffffffffffffffffffffffff16815260200190815260200160002060008282546130bd9190614af4565b92505081905550816003600083815260200190815260200160002060006101000a81548173ffffffffffffffffffffffffffffffffffffffff021916908373ffffffffffffffffffffffffffffffffffffffff160217905550808273ffffffffffffffffffffffffffffffffffffffff16600073ffffffffffffffffffffffffffffffffffffffff167fddf252ad1be2c89b69c2b068fc378daa952ba7f163c4a11628f55a4df523b3ef60405160405180910390a461317e60008383612d9d565b5050565b82805461318e90613be3565b90600052602060002090601f0160209004810192826131b057600085556131f7565b82601f106131c957803560ff19168380011785556131f7565b828001600101855582156131f7579182015b828111156131f65782358255916020019190600101906131db565b5b509050613204919061328e565b5090565b82805461321490613be3565b90600052602060002090601f016020900481019282613236576000855561327d565b82601f1061324f57805160ff191683800117855561327d565b8280016001018555821561327d579182015b8281111561327c578251825591602001919060010190613261565b5b50905061328a919061328e565b5090565b5b808211156132a757600081600090555060010161328f565b5090565b6000604051905090565b600080fd5b600080fd5b60007fffffffff0000000000000000000000000000000000000000000000000000000082169050919050565b6132f4816132bf565b81146132ff57600080fd5b50565b600081359050613311816132eb565b92915050565b60006020828403121561332d5761332c6132b5565b5b600061333b84828501613302565b91505092915050565b60008115159050919050565b61335981613344565b82525050565b60006020820190506133746000830184613350565b92915050565b600081519050919050565b600082825260208201905092915050565b60005b838110156133b4578082015181840152602081019050613399565b838111156133c3576000848401525b50505050565b6000601f19601f8301169050919050565b60006133e58261337a565b6133ef8185613385565b93506133ff818560208601613396565b613408816133c9565b840191505092915050565b6000602082019050818103600083015261342d81846133da565b905092915050565b6000819050919050565b61344881613435565b811461345357600080fd5b50565b6000813590506134658161343f565b92915050565b600060208284031215613481576134806132b5565b5b600061348f84828501613456565b91505092915050565b600073ffffffffffffffffffffffffffffffffffffffff82169050919050565b60006134c382613498565b9050919050565b6134d3816134b8565b82525050565b60006020820190506134ee60008301846134ca565b92915050565b6134fd816134b8565b811461350857600080fd5b50565b60008135905061351a816134f4565b92915050565b60008060408385031215613537576135366132b5565b5b60006135458582860161350b565b925050602061355685828601613456565b9150509250929050565b600080fd5b600080fd5b600080fd5b60008083601f84011261358557613584613560565b5b8235905067ffffffffffffffff8111156135a2576135a1613565565b5b6020830191508360018202830111156135be576135bd61356a565b5b9250929050565b600080602083850312156135dc576135db6132b5565b5b600083013567ffffffffffffffff8111156135fa576135f96132ba565b5b6136068582860161356f565b92509250509250929050565b60008060006060848603121561362b5761362a6132b5565b5b60006136398682870161350b565b935050602061364a8682870161350b565b925050604061365b86828701613456565b9150509250925092565b600080fd5b7f4e487b7100000000000000000000000000000000000000000000000000000000600052604160045260246000fd5b6136a2826133c9565b810181811067ffffffffffffffff821117156136c1576136c061366a565b5b80604052505050565b60006136d46132ab565b90506136e08282613699565b919050565b600067ffffffffffffffff821115613700576136ff61366a565b5b613709826133c9565b9050602081019050919050565b82818337600083830152505050565b6000613738613733846136e5565b6136ca565b90508281526020810184848401111561375457613753613665565b5b61375f848285613716565b509392505050565b600082601f83011261377c5761377b613560565b5b813561378c848260208601613725565b91505092915050565b6000602082840312156137ab576137aa6132b5565b5b600082013567ffffffffffffffff8111156137c9576137c86132ba565b5b6137d584828501613767565b91505092915050565b6000602082840312156137f4576137f36132b5565b5b60006138028482850161350b565b91505092915050565b61381481613435565b82525050565b600060208201905061382f600083018461380b565b92915050565b61383e81613344565b811461384957600080fd5b50565b60008135905061385b81613835565b92915050565b60008060408385031215613878576138776132b5565b5b60006138868582860161350b565b92505060206138978582860161384c565b9150509250929050565b600067ffffffffffffffff8211156138bc576138bb61366a565b5b6138c5826133c9565b9050602081019050919050565b60006138e56138e0846138a1565b6136ca565b90508281526020810184848401111561390157613900613665565b5b61390c848285613716565b509392505050565b600082601f83011261392957613928613560565b5b81356139398482602086016138d2565b91505092915050565b6000806000806080858703121561395c5761395b6132b5565b5b600061396a8782880161350b565b945050602061397b8782880161350b565b935050604061398c87828801613456565b925050606085013567ffffffffffffffff8111156139ad576139ac6132ba565b5b6139b987828801613914565b91505092959194509250565b600080600080604085870312156139df576139de6132b5565b5b600085013567ffffffffffffffff8111156139fd576139fc6132ba565b5b613a098782880161356f565b9450945050602085013567ffffffffffffffff811115613a2c57613a2b6132ba565b5b613a388782880161356f565b925092505092959194509250565b60008060408385031215613a5d57613a5c6132b5565b5b6000613a6b8582860161350b565b9250506020613a7c8582860161350b565b9150509250929050565b600081519050919050565b600082825260208201905092915050565b6000819050602082019050919050565b600082825260208201905092915050565b6000613ace8261337a565b613ad88185613ab2565b9350613ae8818560208601613396565b613af1816133c9565b840191505092915050565b6000613b088383613ac3565b905092915050565b6000602082019050919050565b6000613b2882613a86565b613b328185613a91565b935083602082028501613b4485613aa2565b8060005b85811015613b805784840389528151613b618582613afc565b9450613b6c83613b10565b925060208a01995050600181019050613b48565b50829750879550505050505092915050565b60006020820190508181036000830152613bac8184613b1d565b905092915050565b7f4e487b7100000000000000000000000000000000000000000000000000000000600052602260045260246000fd5b60006002820490506001821680613bfb57607f821691505b60208210811415613c0f57613c0e613bb4565b5b50919050565b7f4552433732313a20617070726f76656420717565727920666f72206e6f6e657860008201527f697374656e7420746f6b656e0000000000000000000000000000000000000000602082015250565b6000613c71602c83613385565b9150613c7c82613c15565b604082019050919050565b60006020820190508181036000830152613ca081613c64565b9050919050565b7f4552433732313a20617070726f76616c20746f2063757272656e74206f776e6560008201527f7200000000000000000000000000000000000000000000000000000000000000602082015250565b6000613d03602183613385565b9150613d0e82613ca7565b604082019050919050565b60006020820190508181036000830152613d3281613cf6565b9050919050565b7f4552433732313a20617070726f76652063616c6c6572206973206e6f74206f7760008201527f6e6572206e6f7220617070726f76656420666f7220616c6c0000000000000000602082015250565b6000613d95603883613385565b9150613da082613d39565b604082019050919050565b60006020820190508181036000830152613dc481613d88565b9050919050565b600081905092915050565b6000613de28385613dcb565b9350613def838584613716565b82840190509392505050565b6000613e08828486613dd6565b91508190509392505050565b7f4552433732313a207472616e736665722063616c6c6572206973206e6f74206f60008201527f776e6572206e6f7220617070726f766564000000000000000000000000000000602082015250565b6000613e70603183613385565b9150613e7b82613e14565b604082019050919050565b60006020820190508181036000830152613e9f81613e63565b9050919050565b7f4f776e61626c653a2063616c6c6572206973206e6f7420746865206f776e6572600082015250565b6000613edc602083613385565b9150613ee782613ea6565b602082019050919050565b60006020820190508181036000830152613f0b81613ecf565b9050919050565b600081905092915050565b50565b6000613f2d600083613f12565b9150613f3882613f1d565b600082019050919050565b6000613f4e82613f20565b9150819050919050565b7f4661696c656420746f207769746864726177204d617469630000000000000000600082015250565b6000613f8e601883613385565b9150613f9982613f58565b602082019050919050565b60006020820190508181036000830152613fbd81613f81565b9050919050565b7f4552433732313a206f776e657220717565727920666f72206e6f6e657869737460008201527f656e7420746f6b656e0000000000000000000000000000000000000000000000602082015250565b6000614020602983613385565b915061402b82613fc4565b604082019050919050565b6000602082019050818103600083015261404f81614013565b9050919050565b7f4552433732313a2062616c616e636520717565727920666f7220746865207a6560008201527f726f206164647265737300000000000000000000000000000000000000000000602082015250565b60006140b2602a83613385565b91506140bd82614056565b604082019050919050565b600060208201905081810360008301526140e1816140a5565b9050919050565b7f54686973206973206e6f7420796f757220646f6d61696e000000000000000000600082015250565b600061411e601783613385565b9150614129826140e8565b602082019050919050565b6000602082019050818103600083015261414d81614111565b9050919050565b7f45524337323155524953746f726167653a2055524920717565727920666f722060008201527f6e6f6e6578697374656e7420746f6b656e000000000000000000000000000000602082015250565b60006141b0603183613385565b91506141bb82614154565b604082019050919050565b600060208201905081810360008301526141df816141a3565b9050919050565b60006141f18261337a565b6141fb8185613dcb565b935061420b818560208601613396565b80840191505092915050565b600061422382856141e6565b915061422f82846141e6565b91508190509392505050565b7f446f6d61696e20616c7265616479207265676973746572656400000000000000600082015250565b6000614271601983613385565b915061427c8261423b565b602082019050919050565b600060208201905081810360008301526142a081614264565b9050919050565b7f4e6f7420612076616c696420646f6d61696e0000000000000000000000000000600082015250565b60006142dd601283613385565b91506142e8826142a7565b602082019050919050565b6000602082019050818103600083015261430c816142d0565b9050919050565b7f4e6f7420656e6f756768204d6174696320706169640000000000000000000000600082015250565b6000614349601583613385565b915061435482614313565b602082019050919050565b600060208201905081810360008301526143788161433c565b9050919050565b7f2e00000000000000000000000000000000000000000000000000000000000000600082015250565b60006143b5600183613dcb565b91506143c08261437f565b600182019050919050565b60008190508160005260206000209050919050565b600081546143ed81613be3565b6143f78186613dcb565b94506001821660008114614412576001811461442357614456565b60ff19831686528186019350614456565b61442c856143cb565b60005b8381101561444e5781548189015260018201915060208101905061442f565b838801955050505b50505092915050565b600061446c828587613dd6565b9150614477826143a8565b915061448382846143e0565b9150819050949350505050565b600061449c82866143e0565b91506144a882856141e6565b91506144b482846143e0565b9150819050949350505050565b7f7b226e616d65223a202200000000000000000000000000000000000000000000600082015250565b60006144f7600a83613dcb565b9150614502826144c1565b600a82019050919050565b7f222c20226465736372697074696f6e223a20224120646f6d61696e206f6e207460008201527f686520416c70616361206e616d652073657276696365222c2022696d6167652260208201527f3a2022646174613a696d6167652f7376672b786d6c3b6261736536342c000000604082015250565b600061458f605d83613dcb565b915061459a8261450d565b605d82019050919050565b7f222c226c656e677468223a220000000000000000000000000000000000000000600082015250565b60006145db600c83613dcb565b91506145e6826145a5565b600c82019050919050565b7f227d000000000000000000000000000000000000000000000000000000000000600082015250565b6000614627600283613dcb565b9150614632826145f1565b600282019050919050565b6000614648826144ea565b915061465482866141e6565b915061465f82614582565b915061466b82856141e6565b9150614676826145ce565b915061468282846141e6565b915061468d8261461a565b9150819050949350505050565b7f646174613a6170706c69636174696f6e2f6a736f6e3b6261736536342c000000600082015250565b60006146d0601d83613dcb565b91506146db8261469a565b601d82019050919050565b60006146f1826146c3565b91506146fd82846141e6565b915081905092915050565b7f4f776e61626c653a206e6577206f776e657220697320746865207a65726f206160008201527f6464726573730000000000000000000000000000000000000000000000000000602082015250565b6000614764602683613385565b915061476f82614708565b604082019050919050565b6000602082019050818103600083015261479381614757565b9050919050565b7f4e487b7100000000000000000000000000000000000000000000000000000000600052603260045260246000fd5b7f4e487b7100000000000000000000000000000000000000000000000000000000600052601160045260246000fd5b600061480382613435565b91507fffffffffffffffffffffffffffffffffffffffffffffffffffffffffffffffff821415614836576148356147c9565b5b600182019050919050565b7f446f6d61696e206d7573742061687665206d6f7265207468616e20302063686160008201527f7261637465727300000000000000000000000000000000000000000000000000602082015250565b600061489d602783613385565b91506148a882614841565b604082019050919050565b600060208201905081810360008301526148cc81614890565b9050919050565b600060408201905081810360008301526148ed81856133da565b9050818103602083015261490181846133da565b90509392505050565b7f4552433732313a206f70657261746f7220717565727920666f72206e6f6e657860008201527f697374656e7420746f6b656e0000000000000000000000000000000000000000602082015250565b6000614966602c83613385565b91506149718261490a565b604082019050919050565b6000602082019050818103600083015261499581614959565b9050919050565b7f4552433732313a207472616e736665722066726f6d20696e636f72726563742060008201527f6f776e6572000000000000000000000000000000000000000000000000000000602082015250565b60006149f8602583613385565b9150614a038261499c565b604082019050919050565b60006020820190508181036000830152614a27816149eb565b9050919050565b7f4552433732313a207472616e7366657220746f20746865207a65726f2061646460008201527f7265737300000000000000000000000000000000000000000000000000000000602082015250565b6000614a8a602483613385565b9150614a9582614a2e565b604082019050919050565b60006020820190508181036000830152614ab981614a7d565b9050919050565b6000614acb82613435565b9150614ad683613435565b925082821015614ae957614ae86147c9565b5b828203905092915050565b6000614aff82613435565b9150614b0a83613435565b9250827fffffffffffffffffffffffffffffffffffffffffffffffffffffffffffffffff03821115614b3f57614b3e6147c9565b5b828201905092915050565b7f4552433732313a20617070726f766520746f2063616c6c657200000000000000600082015250565b6000614b80601983613385565b9150614b8b82614b4a565b602082019050919050565b60006020820190508181036000830152614baf81614b73565b9050919050565b7f4552433732313a207472616e7366657220746f206e6f6e20455243373231526560008201527f63656976657220696d706c656d656e7465720000000000000000000000000000602082015250565b6000614c12603283613385565b9150614c1d82614bb6565b604082019050919050565b60006020820190508181036000830152614c4181614c05565b9050919050565b7f4552433732314d657461646174613a2055524920717565727920666f72206e6f60008201527f6e6578697374656e7420746f6b656e0000000000000000000000000000000000602082015250565b6000614ca4602f83613385565b9150614caf82614c48565b604082019050919050565b60006020820190508181036000830152614cd381614c97565b9050919050565b7f4e487b7100000000000000000000000000000000000000000000000000000000600052601260045260246000fd5b6000614d1482613435565b9150614d1f83613435565b925082614d2f57614d2e614cda565b5b828204905092915050565b6000614d4582613435565b9150614d5083613435565b925082614d6057614d5f614cda565b5b828206905092915050565b60006080820190508181036000830152614d8581876133da565b90508181036020830152614d9981866133da565b90508181036040830152614dad81856133da565b9050614dbc606083018461380b565b95945050505050565b6000614dd082613435565b9150614ddb83613435565b9250817fffffffffffffffffffffffffffffffffffffffffffffffffffffffffffffffff0483118215151615614e1457614e136147c9565b5b828202905092915050565b7f45524337323155524953746f726167653a2055524920736574206f66206e6f6e60008201527f6578697374656e7420746f6b656e000000000000000000000000000000000000602082015250565b6000614e7b602e83613385565b9150614e8682614e1f565b604082019050919050565b60006020820190508181036000830152614eaa81614e6e565b9050919050565b60006060820190508181036000830152614ecb81866133da565b9050614eda602083018561380b565b8181036040830152614eec81846133da565b9050949350505050565b600081519050919050565b600082825260208201905092915050565b6000614f1d82614ef6565b614f278185614f01565b9350614f37818560208601613396565b614f40816133c9565b840191505092915050565b6000608082019050614f6060008301876134ca565b614f6d60208301866134ca565b614f7a604083018561380b565b8181036060830152614f8c8184614f12565b905095945050505050565b600081519050614fa6816132eb565b92915050565b600060208284031215614fc257614fc16132b5565b5b6000614fd084828501614f97565b91505092915050565b7f4552433732313a206d696e7420746f20746865207a65726f2061646472657373600082015250565b600061500f602083613385565b915061501a82614fd9565b602082019050919050565b6000602082019050818103600083015261503e81615002565b9050919050565b7f4552433732313a20746f6b656e20616c7265616479206d696e74656400000000600082015250565b600061507b601c83613385565b915061508682615045565b602082019050919050565b600060208201905081810360008301526150aa8161506e565b905091905056fe0a2d2d2d2d2d2d2d2d2d2d2d2d2d2d2d2d2d2d2d2d2d2d2d2d2d2d2d2d2d2d2d2d2d2d2d2d2d2d2d2d2d2d2d2d2d2d2d2d2d2d2d2d2d2d2d2d5265676973746572696e672025732e2573206f6e2074686520636f6e7472616374207769746820746f6b656e49442025642d2d2d2d2d2d2d2d2d2d2d2d2d2d2d2d2d2d2d2d2d2d2d2d2d2d2d2d2d2d2d2d2d2d2d2d2d2d2d2d2d2d2d2d2d2d2d2d2d2d2d2d2d2d2d2d0a4142434445464748494a4b4c4d4e4f505152535455565758595a6162636465666768696a6b6c6d6e6f707172737475767778797a303132333435363738392b2fa2646970667358221220ceaefcc5e0d3af40e8494d3895456cb7a8c42bffbf96e316794893d951d2627864736f6c634300080a00333c73766720786d6c6e733d22687474703a2f2f7777772e77332e6f72672f323030302f737667222077696474683d2232373022206865696768743d22323730222066696c6c3d226e6f6e65223e3c706174682066696c6c3d2275726c282342292220643d224d302030683237307632373048307a222f3e3c646566733e3c66696c7465722069643d22412220636f6c6f722d696e746572706f6c6174696f6e2d66696c746572733d2273524742222066696c746572556e6974733d227573657253706163654f6e55736522206865696768743d22323730222077696474683d22323730223e3c666544726f70536861646f772064783d2230222064793d22312220737464446576696174696f6e3d22322220666c6f6f642d6f7061636974793d222e323235222077696474683d223230302522206865696768743d2232303025222f3e3c2f66696c7465723e3c2f646566733e3c7061746820643d224d37322e3836332034322e393439632d2e3636382d2e3338372d312e3432362d2e35392d322e3139372d2e3539732d312e3532392e3230342d322e3139372e35396c2d31302e30383120362e3033322d362e383520332e3933342d31302e30383120362e303332632d2e3636382e3338372d312e3432362e35392d322e3139372e3539732d312e3532392d2e3230342d322e3139372d2e35396c2d382e3031332d342e37323161342e353220342e35322030203020312d312e3538392d312e363136632d2e3338342d2e3636352d2e3539342d312e3431382d2e3630382d322e313837762d392e3331632d2e3031332d2e3737352e3138352d312e3533382e3537322d322e32303861342e323520342e323520302030203120312e3632352d312e3539356c372e3838342d342e3539632e3636382d2e33383720312e3432362d2e353920322e3139372d2e353973312e3532392e32303420322e3139372e35396c372e38383420342e353961342e353220342e353220302030203120312e35383920312e363136632e3338342e3636352e35393420312e3431382e36303820322e31383776362e3033326c362e38352d342e303635762d362e303332632e3031332d2e3737352d2e3138352d312e3533382d2e3537322d322e32303861342e323520342e32352030203020302d312e3632352d312e3539354c34312e3435362032342e3539632d2e3636382d2e3338372d312e3432362d2e35392d322e3139372d2e3539732d312e3532392e3230342d322e3139372e35396c2d31342e38363420382e36353561342e323520342e32352030203020302d312e36323520312e353935632d2e3338372e36372d2e35383520312e3433342d2e35373220322e3230387631372e343431632d2e3031332e3737352e31383520312e3533382e35373220322e32303861342e323520342e323520302030203020312e36323520312e3539356c31342e38363420382e363535632e3636382e33383720312e3432362e353920322e3139372e353973312e3532392d2e32303420322e3139372d2e35396c31302e3038312d352e39303120362e38352d342e3036352031302e3038312d352e393031632e3636382d2e33383720312e3432362d2e353920322e3139372d2e353973312e3532392e32303420322e3139372e35396c372e38383420342e353961342e353220342e353220302030203120312e35383920312e363136632e3338342e3636352e35393420312e3431382e36303820322e31383776392e333131632e3031332e3737352d2e31383520312e3533382d2e35373220322e32303861342e323520342e32352030203020312d312e36323520312e3539356c2d372e38383420342e373231632d2e3636382e3338372d312e3432362e35392d322e3139372e3539732d312e3532392d2e3230342d322e3139372d2e35396c2d372e3838342d342e353961342e353220342e35322030203020312d312e3538392d312e363136632d2e3338352d2e3636352d2e3539342d312e3431382d2e3630382d322e313837762d362e3033326c2d362e383520342e30363576362e303332632d2e3031332e3737352e31383520312e3533382e35373220322e32303861342e323520342e323520302030203020312e36323520312e3539356c31342e38363420382e363535632e3636382e33383720312e3432362e353920322e3139372e353973312e3532392d2e32303420322e3139372d2e35396c31342e3836342d382e363535632e3635372d2e33393420312e3230342d2e393520312e3538392d312e363136732e3539342d312e3431382e3630392d322e3138375635352e353338632e3031332d2e3737352d2e3138352d312e3533382d2e3537322d322e32303861342e323520342e32352030203020302d312e3632352d312e3539356c2d31342e3939332d382e3738367a222066696c6c3d2223666666222f3e3c646566733e3c6c696e6561724772616469656e742069643d2242222078313d2230222079313d2230222078323d22323730222079323d2232373022206772616469656e74556e6974733d227573657253706163654f6e557365223e3c73746f702073746f702d636f6c6f723d2223636235656565222f3e3c73746f70206f66667365743d2231222073746f702d636f6c6f723d2223306364376534222073746f702d6f7061636974793d222e3939222f3e3c2f6c696e6561724772616469656e743e3c2f646566733e3c7465787420783d2233322e352220793d223233312220666f6e742d73697a653d223237222066696c6c3d2223666666222066696c7465723d2275726c282341292220666f6e742d66616d696c793d22506c7573204a616b617274612053616e732c44656a6156752053616e732c4e6f746f20436f6c6f7220456d6f6a692c4170706c6520436f6c6f7220456d6f6a692c73616e732d73657269662220666f6e742d7765696768743d22626f6c64223e",
  "linkReferences": {},
  "deployedLinkReferences": {}
}