{
  "_format": "hh-sol-artifact-1",
  "contractName": "Domains",
  "sourceName": "contracts/Domains.sol",
  "abi": [
    {
      "inputs": [
        {
          "internalType": "string",
          "name": "_tld",
          "type": "string"
        }
      ],
      "stateMutability": "payable",
      "type": "constructor"
    },
    {
      "anonymous": false,
      "inputs": [
        {
          "indexed": true,
          "internalType": "address",
          "name": "owner",
          "type": "address"
        },
        {
          "indexed": true,
          "internalType": "address",
          "name": "approved",
          "type": "address"
        },
        {
          "indexed": true,
          "internalType": "uint256",
          "name": "tokenId",
          "type": "uint256"
        }
      ],
      "name": "Approval",
      "type": "event"
    },
    {
      "anonymous": false,
      "inputs": [
        {
          "indexed": true,
          "internalType": "address",
          "name": "owner",
          "type": "address"
        },
        {
          "indexed": true,
          "internalType": "address",
          "name": "operator",
          "type": "address"
        },
        {
          "indexed": false,
          "internalType": "bool",
          "name": "approved",
          "type": "bool"
        }
      ],
      "name": "ApprovalForAll",
      "type": "event"
    },
    {
      "anonymous": false,
      "inputs": [
        {
          "indexed": true,
          "internalType": "address",
          "name": "from",
          "type": "address"
        },
        {
          "indexed": true,
          "internalType": "address",
          "name": "to",
          "type": "address"
        },
        {
          "indexed": true,
          "internalType": "uint256",
          "name": "tokenId",
          "type": "uint256"
        }
      ],
      "name": "Transfer",
      "type": "event"
    },
    {
      "inputs": [
        {
          "internalType": "address",
          "name": "to",
          "type": "address"
        },
        {
          "internalType": "uint256",
          "name": "tokenId",
          "type": "uint256"
        }
      ],
      "name": "approve",
      "outputs": [],
      "stateMutability": "nonpayable",
      "type": "function"
    },
    {
      "inputs": [
        {
          "internalType": "address",
          "name": "owner",
          "type": "address"
        }
      ],
      "name": "balanceOf",
      "outputs": [
        {
          "internalType": "uint256",
          "name": "",
          "type": "uint256"
        }
      ],
      "stateMutability": "view",
      "type": "function"
    },
    {
      "inputs": [
        {
          "internalType": "string",
          "name": "",
          "type": "string"
        }
      ],
      "name": "domains",
      "outputs": [
        {
          "internalType": "address",
          "name": "",
          "type": "address"
        }
      ],
      "stateMutability": "view",
      "type": "function"
    },
    {
      "inputs": [
        {
          "internalType": "string",
          "name": "name",
          "type": "string"
        }
      ],
      "name": "getAddress",
      "outputs": [
        {
          "internalType": "address",
          "name": "",
          "type": "address"
        }
      ],
      "stateMutability": "view",
      "type": "function"
    },
    {
      "inputs": [
        {
          "internalType": "uint256",
          "name": "tokenId",
          "type": "uint256"
        }
      ],
      "name": "getApproved",
      "outputs": [
        {
          "internalType": "address",
          "name": "",
          "type": "address"
        }
      ],
      "stateMutability": "view",
      "type": "function"
    },
    {
      "inputs": [
        {
          "internalType": "string",
          "name": "name",
          "type": "string"
        }
      ],
      "name": "getRecord",
      "outputs": [
        {
          "internalType": "string",
          "name": "",
          "type": "string"
        }
      ],
      "stateMutability": "view",
      "type": "function"
    },
    {
      "inputs": [
        {
          "internalType": "address",
          "name": "owner",
          "type": "address"
        },
        {
          "internalType": "address",
          "name": "operator",
          "type": "address"
        }
      ],
      "name": "isApprovedForAll",
      "outputs": [
        {
          "internalType": "bool",
          "name": "",
          "type": "bool"
        }
      ],
      "stateMutability": "view",
      "type": "function"
    },
    {
      "inputs": [],
      "name": "name",
      "outputs": [
        {
          "internalType": "string",
          "name": "",
          "type": "string"
        }
      ],
      "stateMutability": "view",
      "type": "function"
    },
    {
      "inputs": [
        {
          "internalType": "uint256",
          "name": "tokenId",
          "type": "uint256"
        }
      ],
      "name": "ownerOf",
      "outputs": [
        {
          "internalType": "address",
          "name": "",
          "type": "address"
        }
      ],
      "stateMutability": "view",
      "type": "function"
    },
    {
      "inputs": [
        {
          "internalType": "string",
          "name": "name",
          "type": "string"
        }
      ],
      "name": "price",
      "outputs": [
        {
          "internalType": "uint256",
          "name": "",
          "type": "uint256"
        }
      ],
      "stateMutability": "pure",
      "type": "function"
    },
    {
      "inputs": [
        {
          "internalType": "string",
          "name": "",
          "type": "string"
        }
      ],
      "name": "records",
      "outputs": [
        {
          "internalType": "string",
          "name": "",
          "type": "string"
        }
      ],
      "stateMutability": "view",
      "type": "function"
    },
    {
      "inputs": [
        {
          "internalType": "string",
          "name": "name",
          "type": "string"
        }
      ],
      "name": "register",
      "outputs": [],
      "stateMutability": "payable",
      "type": "function"
    },
    {
      "inputs": [
        {
          "internalType": "address",
          "name": "from",
          "type": "address"
        },
        {
          "internalType": "address",
          "name": "to",
          "type": "address"
        },
        {
          "internalType": "uint256",
          "name": "tokenId",
          "type": "uint256"
        }
      ],
      "name": "safeTransferFrom",
      "outputs": [],
      "stateMutability": "nonpayable",
      "type": "function"
    },
    {
      "inputs": [
        {
          "internalType": "address",
          "name": "from",
          "type": "address"
        },
        {
          "internalType": "address",
          "name": "to",
          "type": "address"
        },
        {
          "internalType": "uint256",
          "name": "tokenId",
          "type": "uint256"
        },
        {
          "internalType": "bytes",
          "name": "_data",
          "type": "bytes"
        }
      ],
      "name": "safeTransferFrom",
      "outputs": [],
      "stateMutability": "nonpayable",
      "type": "function"
    },
    {
      "inputs": [
        {
          "internalType": "address",
          "name": "operator",
          "type": "address"
        },
        {
          "internalType": "bool",
          "name": "approved",
          "type": "bool"
        }
      ],
      "name": "setApprovalForAll",
      "outputs": [],
      "stateMutability": "nonpayable",
      "type": "function"
    },
    {
      "inputs": [
        {
          "internalType": "string",
          "name": "name",
          "type": "string"
        },
        {
          "internalType": "string",
          "name": "record",
          "type": "string"
        }
      ],
      "name": "setRecord",
      "outputs": [],
      "stateMutability": "nonpayable",
      "type": "function"
    },
    {
      "inputs": [
        {
          "internalType": "bytes4",
          "name": "interfaceId",
          "type": "bytes4"
        }
      ],
      "name": "supportsInterface",
      "outputs": [
        {
          "internalType": "bool",
          "name": "",
          "type": "bool"
        }
      ],
      "stateMutability": "view",
      "type": "function"
    },
    {
      "inputs": [],
      "name": "symbol",
      "outputs": [
        {
          "internalType": "string",
          "name": "",
          "type": "string"
        }
      ],
      "stateMutability": "view",
      "type": "function"
    },
    {
      "inputs": [],
      "name": "tld",
      "outputs": [
        {
          "internalType": "string",
          "name": "",
          "type": "string"
        }
      ],
      "stateMutability": "view",
      "type": "function"
    },
    {
      "inputs": [
        {
          "internalType": "uint256",
          "name": "tokenId",
          "type": "uint256"
        }
      ],
      "name": "tokenURI",
      "outputs": [
        {
          "internalType": "string",
          "name": "",
          "type": "string"
        }
      ],
      "stateMutability": "view",
      "type": "function"
    },
    {
      "inputs": [
        {
          "internalType": "address",
          "name": "from",
          "type": "address"
        },
        {
          "internalType": "address",
          "name": "to",
          "type": "address"
        },
        {
          "internalType": "uint256",
          "name": "tokenId",
          "type": "uint256"
        }
      ],
      "name": "transferFrom",
      "outputs": [],
      "stateMutability": "nonpayable",
      "type": "function"
    }
  ],
  "bytecode": "0x6080604052604051806108a0016040528061086b815260200162004b4a61086b9139600990805190602001906200003892919062000287565b506040518060400160405280600d81526020017f3c2f746578743e3c2f7376673e00000000000000000000000000000000000000815250600a90805190602001906200008692919062000287565b50604051620053b5380380620053b58339818101604052810190620000ac9190620004d4565b6040518060400160405280601381526020017f416c70616361204e616d652053657276696365000000000000000000000000008152506040518060400160405280600381526020017f414e53000000000000000000000000000000000000000000000000000000000081525081600090805190602001906200013092919062000287565b5080600190805190602001906200014992919062000287565b50505080600890805190602001906200016492919062000287565b50620001b16040518060400160405280601881526020017f2573206e616d652073657276696365206465706c6f796564000000000000000081525082620001b860201b620015ae1760201c565b5062000622565b6200025a8282604051602401620001d192919062000582565b6040516020818303038152906040527f4b5c4277000000000000000000000000000000000000000000000000000000007bffffffffffffffffffffffffffffffffffffffffffffffffffffffff19166020820180517bffffffffffffffffffffffffffffffffffffffffffffffffffffffff83818316178352505050506200025e60201b60201c565b5050565b60008151905060006a636f6e736f6c652e6c6f679050602083016000808483855afa5050505050565b8280546200029590620005ec565b90600052602060002090601f016020900481019282620002b9576000855562000305565b82601f10620002d457805160ff191683800117855562000305565b8280016001018555821562000305579182015b8281111562000304578251825591602001919060010190620002e7565b5b50905062000314919062000318565b5090565b5b808211156200033357600081600090555060010162000319565b5090565b6000604051905090565b600080fd5b600080fd5b600080fd5b600080fd5b6000601f19601f8301169050919050565b7f4e487b7100000000000000000000000000000000000000000000000000000000600052604160045260246000fd5b620003a08262000355565b810181811067ffffffffffffffff82111715620003c257620003c162000366565b5b80604052505050565b6000620003d762000337565b9050620003e5828262000395565b919050565b600067ffffffffffffffff82111562000408576200040762000366565b5b620004138262000355565b9050602081019050919050565b60005b838110156200044057808201518184015260208101905062000423565b8381111562000450576000848401525b50505050565b60006200046d6200046784620003ea565b620003cb565b9050828152602081018484840111156200048c576200048b62000350565b5b6200049984828562000420565b509392505050565b600082601f830112620004b957620004b86200034b565b5b8151620004cb84826020860162000456565b91505092915050565b600060208284031215620004ed57620004ec62000341565b5b600082015167ffffffffffffffff8111156200050e576200050d62000346565b5b6200051c84828501620004a1565b91505092915050565b600081519050919050565b600082825260208201905092915050565b60006200054e8262000525565b6200055a818562000530565b93506200056c81856020860162000420565b620005778162000355565b840191505092915050565b600060408201905081810360008301526200059e818562000541565b90508181036020830152620005b4818462000541565b90509392505050565b7f4e487b7100000000000000000000000000000000000000000000000000000000600052602260045260246000fd5b600060028204905060018216806200060557607f821691505b602082108114156200061c576200061b620005bd565b5b50919050565b61451880620006326000396000f3fe60806040526004361061012a5760003560e01c80636352211e116100ab578063bf40fac11161006f578063bf40fac114610428578063c1880a9814610465578063c87b56dd1461048e578063e985e9c5146104cb578063f2c298be14610508578063fe2c6198146105245761012a565b80636352211e1461033157806370a082311461036e57806395d89b41146103ab578063a22cb465146103d6578063b88d4fde146103ff5761012a565b806323b872dd116100f257806323b872dd1461023a57806326449235146102635780632d551432146102a057806342842e0e146102cb578063541e771d146102f45761012a565b806301ffc9a71461012f57806306fdde031461016c578063081812fc14610197578063095ea7b3146101d457806311dd8845146101fd575b600080fd5b34801561013b57600080fd5b50610156600480360381019061015191906129f4565b610561565b6040516101639190612a3c565b60405180910390f35b34801561017857600080fd5b50610181610643565b60405161018e9190612af0565b60405180910390f35b3480156101a357600080fd5b506101be60048036038101906101b99190612b48565b6106d5565b6040516101cb9190612bb6565b60405180910390f35b3480156101e057600080fd5b506101fb60048036038101906101f69190612bfd565b61075a565b005b34801561020957600080fd5b50610224600480360381019061021f9190612ca2565b610872565b6040516102319190612af0565b60405180910390f35b34801561024657600080fd5b50610261600480360381019061025c9190612cef565b610925565b005b34801561026f57600080fd5b5061028a60048036038101906102859190612e72565b610985565b6040516102979190612bb6565b60405180910390f35b3480156102ac57600080fd5b506102b56109ce565b6040516102c29190612af0565b60405180910390f35b3480156102d757600080fd5b506102f260048036038101906102ed9190612cef565b610a5c565b005b34801561030057600080fd5b5061031b60048036038101906103169190612e72565b610a7c565b6040516103289190612af0565b60405180910390f35b34801561033d57600080fd5b5061035860048036038101906103539190612b48565b610b32565b6040516103659190612bb6565b60405180910390f35b34801561037a57600080fd5b5061039560048036038101906103909190612ebb565b610be4565b6040516103a29190612ef7565b60405180910390f35b3480156103b757600080fd5b506103c0610c9c565b6040516103cd9190612af0565b60405180910390f35b3480156103e257600080fd5b506103fd60048036038101906103f89190612f3e565b610d2e565b005b34801561040b57600080fd5b506104266004803603810190610421919061301f565b610d44565b005b34801561043457600080fd5b5061044f600480360381019061044a9190612ca2565b610da6565b60405161045c9190612bb6565b60405180910390f35b34801561047157600080fd5b5061048c600480360381019061048791906130a2565b610df1565b005b34801561049a57600080fd5b506104b560048036038101906104b09190612b48565b610ed5565b6040516104c29190612af0565b60405180910390f35b3480156104d757600080fd5b506104f260048036038101906104ed9190613123565b611027565b6040516104ff9190612a3c565b60405180910390f35b610522600480360381019061051d9190612ca2565b6110bb565b005b34801561053057600080fd5b5061054b60048036038101906105469190612ca2565b6114d2565b6040516105589190612ef7565b60405180910390f35b60007f80ac58cd000000000000000000000000000000000000000000000000000000007bffffffffffffffffffffffffffffffffffffffffffffffffffffffff1916827bffffffffffffffffffffffffffffffffffffffffffffffffffffffff1916148061062c57507f5b5e139f000000000000000000000000000000000000000000000000000000007bffffffffffffffffffffffffffffffffffffffffffffffffffffffff1916827bffffffffffffffffffffffffffffffffffffffffffffffffffffffff1916145b8061063c575061063b8261164a565b5b9050919050565b60606000805461065290613192565b80601f016020809104026020016040519081016040528092919081815260200182805461067e90613192565b80156106cb5780601f106106a0576101008083540402835291602001916106cb565b820191906000526020600020905b8154815290600101906020018083116106ae57829003601f168201915b5050505050905090565b60006106e0826116b4565b61071f576040517f08c379a000000000000000000000000000000000000000000000000000000000815260040161071690613236565b60405180910390fd5b6004600083815260200190815260200160002060009054906101000a900473ffffffffffffffffffffffffffffffffffffffff169050919050565b600061076582610b32565b90508073ffffffffffffffffffffffffffffffffffffffff168373ffffffffffffffffffffffffffffffffffffffff1614156107d6576040517f08c379a00000000000000000000000000000000000000000000000000000000081526004016107cd906132c8565b60405180910390fd5b8073ffffffffffffffffffffffffffffffffffffffff166107f5611720565b73ffffffffffffffffffffffffffffffffffffffff16148061082457506108238161081e611720565b611027565b5b610863576040517f08c379a000000000000000000000000000000000000000000000000000000000815260040161085a9061335a565b60405180910390fd5b61086d8383611728565b505050565b6060600c83836040516108869291906133aa565b9081526020016040518091039020805461089f90613192565b80601f01602080910402602001604051908101604052809291908181526020018280546108cb90613192565b80156109185780601f106108ed57610100808354040283529160200191610918565b820191906000526020600020905b8154815290600101906020018083116108fb57829003601f168201915b5050505050905092915050565b610936610930611720565b826117e1565b610975576040517f08c379a000000000000000000000000000000000000000000000000000000000815260040161096c90613435565b60405180910390fd5b6109808383836118bf565b505050565b600b818051602081018201805184825260208301602085012081835280955050505050506000915054906101000a900473ffffffffffffffffffffffffffffffffffffffff1681565b600880546109db90613192565b80601f0160208091040260200160405190810160405280929190818152602001828054610a0790613192565b8015610a545780601f10610a2957610100808354040283529160200191610a54565b820191906000526020600020905b815481529060010190602001808311610a3757829003601f168201915b505050505081565b610a7783838360405180602001604052806000815250610d44565b505050565b600c818051602081018201805184825260208301602085012081835280955050505050506000915090508054610ab190613192565b80601f0160208091040260200160405190810160405280929190818152602001828054610add90613192565b8015610b2a5780601f10610aff57610100808354040283529160200191610b2a565b820191906000526020600020905b815481529060010190602001808311610b0d57829003601f168201915b505050505081565b6000806002600084815260200190815260200160002060009054906101000a900473ffffffffffffffffffffffffffffffffffffffff169050600073ffffffffffffffffffffffffffffffffffffffff168173ffffffffffffffffffffffffffffffffffffffff161415610bdb576040517f08c379a0000000000000000000000000000000000000000000000000000000008152600401610bd2906134c7565b60405180910390fd5b80915050919050565b60008073ffffffffffffffffffffffffffffffffffffffff168273ffffffffffffffffffffffffffffffffffffffff161415610c55576040517f08c379a0000000000000000000000000000000000000000000000000000000008152600401610c4c90613559565b60405180910390fd5b600360008373ffffffffffffffffffffffffffffffffffffffff1673ffffffffffffffffffffffffffffffffffffffff168152602001908152602001600020549050919050565b606060018054610cab90613192565b80601f0160208091040260200160405190810160405280929190818152602001828054610cd790613192565b8015610d245780601f10610cf957610100808354040283529160200191610d24565b820191906000526020600020905b815481529060010190602001808311610d0757829003601f168201915b5050505050905090565b610d40610d39611720565b8383611b26565b5050565b610d55610d4f611720565b836117e1565b610d94576040517f08c379a0000000000000000000000000000000000000000000000000000000008152600401610d8b90613435565b60405180910390fd5b610da084848484611c93565b50505050565b6000600b8383604051610dba9291906133aa565b908152602001604051809103902060009054906101000a900473ffffffffffffffffffffffffffffffffffffffff16905092915050565b3373ffffffffffffffffffffffffffffffffffffffff16600b8585604051610e1a9291906133aa565b908152602001604051809103902060009054906101000a900473ffffffffffffffffffffffffffffffffffffffff1673ffffffffffffffffffffffffffffffffffffffff1614610e9f576040517f08c379a0000000000000000000000000000000000000000000000000000000008152600401610e96906135c5565b60405180910390fd5b8181600c8686604051610eb39291906133aa565b90815260200160405180910390209190610ece92919061285f565b5050505050565b6060610ee0826116b4565b610f1f576040517f08c379a0000000000000000000000000000000000000000000000000000000008152600401610f1690613657565b60405180910390fd5b6000600660008481526020019081526020016000208054610f3f90613192565b80601f0160208091040260200160405190810160405280929190818152602001828054610f6b90613192565b8015610fb85780601f10610f8d57610100808354040283529160200191610fb8565b820191906000526020600020905b815481529060010190602001808311610f9b57829003601f168201915b505050505090506000610fc9611cef565b9050600081511415610fdf578192505050611022565b600082511115611014578082604051602001610ffc9291906136a8565b60405160208183030381529060405292505050611022565b61101d84611d06565b925050505b919050565b6000600560008473ffffffffffffffffffffffffffffffffffffffff1673ffffffffffffffffffffffffffffffffffffffff16815260200190815260200160002060008373ffffffffffffffffffffffffffffffffffffffff1673ffffffffffffffffffffffffffffffffffffffff16815260200190815260200160002060009054906101000a900460ff16905092915050565b600073ffffffffffffffffffffffffffffffffffffffff16600b83836040516110e59291906133aa565b908152602001604051809103902060009054906101000a900473ffffffffffffffffffffffffffffffffffffffff1673ffffffffffffffffffffffffffffffffffffffff161461116a576040517f08c379a000000000000000000000000000000000000000000000000000000000815260040161116190613718565b60405180910390fd5b600061117683836114d2565b9050803410156111bb576040517f08c379a00000000000000000000000000000000000000000000000000000000081526004016111b290613784565b60405180910390fd5b6000838360086040516020016111d393929190613884565b60405160208183030381529060405290506000600982600a6040516020016111fd939291906138b5565b6040516020818303038152906040529050600061121a6007611dad565b9050600061126b87878080601f016020809104026020016040519081016040528093929190818152602001838380828437600081840152601f19601f82011690508083019250505050505050611dbb565b9050600061127882611f70565b905061136c6040518060600160405280603181526020016144396031913989898080601f016020809104026020016040519081016040528093929190818152602001838380828437600081840152601f19601f82011690508083019250505050505050600880546112e890613192565b80601f016020809104026020016040519081016040528092919081815260200182805461131490613192565b80156113615780601f1061133657610100808354040283529160200191611361565b820191906000526020600020905b81548152906001019060200180831161134457829003601f168201915b5050505050866120d1565b60006113a28661137b87612173565b8460405160200161138e93929190613a62565b604051602081830303815290604052612173565b90506000816040516020016113b79190613b0b565b60405160208183030381529060405290506113e96040518060600160405280603981526020016144006039913961230b565b6114286040518060400160405280600e81526020017f46696e616c20746f6b656e555249000000000000000000000000000000000000815250826115ae565b61144960405180606001604052806039815260200161446a6039913961230b565b61145333866123a4565b61145d85826123c2565b33600b8b8b6040516114709291906133aa565b908152602001604051809103902060006101000a81548173ffffffffffffffffffffffffffffffffffffffff021916908373ffffffffffffffffffffffffffffffffffffffff1602179055506114c66007612436565b50505050505050505050565b60008061152284848080601f016020809104026020016040519081016040528093929190818152602001838380828437600081840152601f19601f82011690508083019250505050505050611dbb565b905060008111611567576040517f08c379a000000000000000000000000000000000000000000000000000000000815260040161155e90613b9f565b60405180910390fd5b6003811415611581576706f05b59d3b200009150506115a8565b600481141561159b57670429d069189e00009150506115a8565b67016345785d8a00009150505b92915050565b61164682826040516024016115c4929190613bbf565b6040516020818303038152906040527f4b5c4277000000000000000000000000000000000000000000000000000000007bffffffffffffffffffffffffffffffffffffffffffffffffffffffff19166020820180517bffffffffffffffffffffffffffffffffffffffffffffffffffffffff838183161783525050505061244c565b5050565b60007f01ffc9a7000000000000000000000000000000000000000000000000000000007bffffffffffffffffffffffffffffffffffffffffffffffffffffffff1916827bffffffffffffffffffffffffffffffffffffffffffffffffffffffff1916149050919050565b60008073ffffffffffffffffffffffffffffffffffffffff166002600084815260200190815260200160002060009054906101000a900473ffffffffffffffffffffffffffffffffffffffff1673ffffffffffffffffffffffffffffffffffffffff1614159050919050565b600033905090565b816004600083815260200190815260200160002060006101000a81548173ffffffffffffffffffffffffffffffffffffffff021916908373ffffffffffffffffffffffffffffffffffffffff160217905550808273ffffffffffffffffffffffffffffffffffffffff1661179b83610b32565b73ffffffffffffffffffffffffffffffffffffffff167f8c5be1e5ebec7d5bd14f71427d1e84f3dd0314c0f7b2291e5b200ac8c7c3b92560405160405180910390a45050565b60006117ec826116b4565b61182b576040517f08c379a000000000000000000000000000000000000000000000000000000000815260040161182290613c68565b60405180910390fd5b600061183683610b32565b90508073ffffffffffffffffffffffffffffffffffffffff168473ffffffffffffffffffffffffffffffffffffffff1614806118a557508373ffffffffffffffffffffffffffffffffffffffff1661188d846106d5565b73ffffffffffffffffffffffffffffffffffffffff16145b806118b657506118b58185611027565b5b91505092915050565b8273ffffffffffffffffffffffffffffffffffffffff166118df82610b32565b73ffffffffffffffffffffffffffffffffffffffff1614611935576040517f08c379a000000000000000000000000000000000000000000000000000000000815260040161192c90613cfa565b60405180910390fd5b600073ffffffffffffffffffffffffffffffffffffffff168273ffffffffffffffffffffffffffffffffffffffff1614156119a5576040517f08c379a000000000000000000000000000000000000000000000000000000000815260040161199c90613d8c565b60405180910390fd5b6119b0838383612475565b6119bb600082611728565b6001600360008573ffffffffffffffffffffffffffffffffffffffff1673ffffffffffffffffffffffffffffffffffffffff1681526020019081526020016000206000828254611a0b9190613ddb565b925050819055506001600360008473ffffffffffffffffffffffffffffffffffffffff1673ffffffffffffffffffffffffffffffffffffffff1681526020019081526020016000206000828254611a629190613e0f565b92505081905550816002600083815260200190815260200160002060006101000a81548173ffffffffffffffffffffffffffffffffffffffff021916908373ffffffffffffffffffffffffffffffffffffffff160217905550808273ffffffffffffffffffffffffffffffffffffffff168473ffffffffffffffffffffffffffffffffffffffff167fddf252ad1be2c89b69c2b068fc378daa952ba7f163c4a11628f55a4df523b3ef60405160405180910390a4611b2183838361247a565b505050565b8173ffffffffffffffffffffffffffffffffffffffff168373ffffffffffffffffffffffffffffffffffffffff161415611b95576040517f08c379a0000000000000000000000000000000000000000000000000000000008152600401611b8c90613eb1565b60405180910390fd5b80600560008573ffffffffffffffffffffffffffffffffffffffff1673ffffffffffffffffffffffffffffffffffffffff16815260200190815260200160002060008473ffffffffffffffffffffffffffffffffffffffff1673ffffffffffffffffffffffffffffffffffffffff16815260200190815260200160002060006101000a81548160ff0219169083151502179055508173ffffffffffffffffffffffffffffffffffffffff168373ffffffffffffffffffffffffffffffffffffffff167f17307eab39ab6107e8899845ad3d59bd9653f200f220920489ca2b5937696c3183604051611c869190612a3c565b60405180910390a3505050565b611c9e8484846118bf565b611caa8484848461247f565b611ce9576040517f08c379a0000000000000000000000000000000000000000000000000000000008152600401611ce090613f43565b60405180910390fd5b50505050565b606060405180602001604052806000815250905090565b6060611d11826116b4565b611d50576040517f08c379a0000000000000000000000000000000000000000000000000000000008152600401611d4790613fd5565b60405180910390fd5b6000611d5a611cef565b90506000815111611d7a5760405180602001604052806000815250611da5565b80611d8484611f70565b604051602001611d959291906136a8565b6040516020818303038152906040525b915050919050565b600081600001549050919050565b60008060008084519050600092505b80821015611f65576000858381518110611de757611de6613ff5565b5b602001015160f81c60f81b9050608060f81b817effffffffffffffffffffffffffffffffffffffffffffffffffffffffffffff19161015611e3657600183611e2f9190613e0f565b9250611f51565b60e060f81b817effffffffffffffffffffffffffffffffffffffffffffffffffffffffffffff19161015611e7857600283611e719190613e0f565b9250611f50565b60f060f81b817effffffffffffffffffffffffffffffffffffffffffffffffffffffffffffff19161015611eba57600383611eb39190613e0f565b9250611f4f565b60f8801b817effffffffffffffffffffffffffffffffffffffffffffffffffffffffffffff19161015611efb57600483611ef49190613e0f565b9250611f4e565b60fc60f81b817effffffffffffffffffffffffffffffffffffffffffffffffffffffffffffff19161015611f3d57600583611f369190613e0f565b9250611f4d565b600683611f4a9190613e0f565b92505b5b5b5b5b508280611f5d90614024565b935050611dca565b829350505050919050565b60606000821415611fb8576040518060400160405280600181526020017f300000000000000000000000000000000000000000000000000000000000000081525090506120cc565b600082905060005b60008214611fea578080611fd390614024565b915050600a82611fe3919061409c565b9150611fc0565b60008167ffffffffffffffff81111561200657612005612d47565b5b6040519080825280601f01601f1916602001820160405280156120385781602001600182028036833780820191505090505b5090505b600085146120c5576001826120519190613ddb565b9150600a8561206091906140cd565b603061206c9190613e0f565b60f81b81838151811061208257612081613ff5565b5b60200101907effffffffffffffffffffffffffffffffffffffffffffffffffffffffffffff1916908160001a905350600a856120be919061409c565b945061203c565b8093505050505b919050565b61216d848484846040516024016120eb94939291906140fe565b6040516020818303038152906040527f9fd009f5000000000000000000000000000000000000000000000000000000007bffffffffffffffffffffffffffffffffffffffffffffffffffffffff19166020820180517bffffffffffffffffffffffffffffffffffffffffffffffffffffffff838183161783525050505061244c565b50505050565b6060600082519050600081141561219c5760405180602001604052806000815250915050612306565b600060036002836121ad9190613e0f565b6121b7919061409c565b60046121c39190614158565b905060006020826121d49190613e0f565b67ffffffffffffffff8111156121ed576121ec612d47565b5b6040519080825280601f01601f19166020018201604052801561221f5781602001600182028036833780820191505090505b50905060006040518060600160405280604081526020016144a3604091399050600181016020830160005b868110156122c35760038101905062ffffff818a015116603f8160121c168401518060081b905060ff603f83600c1c1686015116810190508060081b905060ff603f8360061c1686015116810190508060081b905060ff603f831686015116810190508060e01b9050808452600484019350505061224a565b5060038606600181146122dd57600281146122ed576122f8565b613d3d60f01b60028303526122f8565b603d60f81b60018303525b508484525050819450505050505b919050565b6123a18160405160240161231f9190612af0565b6040516020818303038152906040527f41304fac000000000000000000000000000000000000000000000000000000007bffffffffffffffffffffffffffffffffffffffffffffffffffffffff19166020820180517bffffffffffffffffffffffffffffffffffffffffffffffffffffffff838183161783525050505061244c565b50565b6123be828260405180602001604052806000815250612607565b5050565b6123cb826116b4565b61240a576040517f08c379a000000000000000000000000000000000000000000000000000000000815260040161240190614224565b60405180910390fd5b806006600084815260200190815260200160002090805190602001906124319291906128e5565b505050565b6001816000016000828254019250508190555050565b60008151905060006a636f6e736f6c652e6c6f679050602083016000808483855afa5050505050565b505050565b505050565b60006124a08473ffffffffffffffffffffffffffffffffffffffff16612662565b156125fa578373ffffffffffffffffffffffffffffffffffffffff1663150b7a026124c9611720565b8786866040518563ffffffff1660e01b81526004016124eb9493929190614299565b6020604051808303816000875af192505050801561252757506040513d601f19601f8201168201806040525081019061252491906142fa565b60015b6125aa573d8060008114612557576040519150601f19603f3d011682016040523d82523d6000602084013e61255c565b606091505b506000815114156125a2576040517f08c379a000000000000000000000000000000000000000000000000000000000815260040161259990613f43565b60405180910390fd5b805181602001fd5b63150b7a0260e01b7bffffffffffffffffffffffffffffffffffffffffffffffffffffffff1916817bffffffffffffffffffffffffffffffffffffffffffffffffffffffff1916149150506125ff565b600190505b949350505050565b6126118383612685565b61261e600084848461247f565b61265d576040517f08c379a000000000000000000000000000000000000000000000000000000000815260040161265490613f43565b60405180910390fd5b505050565b6000808273ffffffffffffffffffffffffffffffffffffffff163b119050919050565b600073ffffffffffffffffffffffffffffffffffffffff168273ffffffffffffffffffffffffffffffffffffffff1614156126f5576040517f08c379a00000000000000000000000000000000000000000000000000000000081526004016126ec90614373565b60405180910390fd5b6126fe816116b4565b1561273e576040517f08c379a0000000000000000000000000000000000000000000000000000000008152600401612735906143df565b60405180910390fd5b61274a60008383612475565b6001600360008473ffffffffffffffffffffffffffffffffffffffff1673ffffffffffffffffffffffffffffffffffffffff168152602001908152602001600020600082825461279a9190613e0f565b92505081905550816002600083815260200190815260200160002060006101000a81548173ffffffffffffffffffffffffffffffffffffffff021916908373ffffffffffffffffffffffffffffffffffffffff160217905550808273ffffffffffffffffffffffffffffffffffffffff16600073ffffffffffffffffffffffffffffffffffffffff167fddf252ad1be2c89b69c2b068fc378daa952ba7f163c4a11628f55a4df523b3ef60405160405180910390a461285b6000838361247a565b5050565b82805461286b90613192565b90600052602060002090601f01602090048101928261288d57600085556128d4565b82601f106128a657803560ff19168380011785556128d4565b828001600101855582156128d4579182015b828111156128d35782358255916020019190600101906128b8565b5b5090506128e1919061296b565b5090565b8280546128f190613192565b90600052602060002090601f016020900481019282612913576000855561295a565b82601f1061292c57805160ff191683800117855561295a565b8280016001018555821561295a579182015b8281111561295957825182559160200191906001019061293e565b5b509050612967919061296b565b5090565b5b8082111561298457600081600090555060010161296c565b5090565b6000604051905090565b600080fd5b600080fd5b60007fffffffff0000000000000000000000000000000000000000000000000000000082169050919050565b6129d18161299c565b81146129dc57600080fd5b50565b6000813590506129ee816129c8565b92915050565b600060208284031215612a0a57612a09612992565b5b6000612a18848285016129df565b91505092915050565b60008115159050919050565b612a3681612a21565b82525050565b6000602082019050612a516000830184612a2d565b92915050565b600081519050919050565b600082825260208201905092915050565b60005b83811015612a91578082015181840152602081019050612a76565b83811115612aa0576000848401525b50505050565b6000601f19601f8301169050919050565b6000612ac282612a57565b612acc8185612a62565b9350612adc818560208601612a73565b612ae581612aa6565b840191505092915050565b60006020820190508181036000830152612b0a8184612ab7565b905092915050565b6000819050919050565b612b2581612b12565b8114612b3057600080fd5b50565b600081359050612b4281612b1c565b92915050565b600060208284031215612b5e57612b5d612992565b5b6000612b6c84828501612b33565b91505092915050565b600073ffffffffffffffffffffffffffffffffffffffff82169050919050565b6000612ba082612b75565b9050919050565b612bb081612b95565b82525050565b6000602082019050612bcb6000830184612ba7565b92915050565b612bda81612b95565b8114612be557600080fd5b50565b600081359050612bf781612bd1565b92915050565b60008060408385031215612c1457612c13612992565b5b6000612c2285828601612be8565b9250506020612c3385828601612b33565b9150509250929050565b600080fd5b600080fd5b600080fd5b60008083601f840112612c6257612c61612c3d565b5b8235905067ffffffffffffffff811115612c7f57612c7e612c42565b5b602083019150836001820283011115612c9b57612c9a612c47565b5b9250929050565b60008060208385031215612cb957612cb8612992565b5b600083013567ffffffffffffffff811115612cd757612cd6612997565b5b612ce385828601612c4c565b92509250509250929050565b600080600060608486031215612d0857612d07612992565b5b6000612d1686828701612be8565b9350506020612d2786828701612be8565b9250506040612d3886828701612b33565b9150509250925092565b600080fd5b7f4e487b7100000000000000000000000000000000000000000000000000000000600052604160045260246000fd5b612d7f82612aa6565b810181811067ffffffffffffffff82111715612d9e57612d9d612d47565b5b80604052505050565b6000612db1612988565b9050612dbd8282612d76565b919050565b600067ffffffffffffffff821115612ddd57612ddc612d47565b5b612de682612aa6565b9050602081019050919050565b82818337600083830152505050565b6000612e15612e1084612dc2565b612da7565b905082815260208101848484011115612e3157612e30612d42565b5b612e3c848285612df3565b509392505050565b600082601f830112612e5957612e58612c3d565b5b8135612e69848260208601612e02565b91505092915050565b600060208284031215612e8857612e87612992565b5b600082013567ffffffffffffffff811115612ea657612ea5612997565b5b612eb284828501612e44565b91505092915050565b600060208284031215612ed157612ed0612992565b5b6000612edf84828501612be8565b91505092915050565b612ef181612b12565b82525050565b6000602082019050612f0c6000830184612ee8565b92915050565b612f1b81612a21565b8114612f2657600080fd5b50565b600081359050612f3881612f12565b92915050565b60008060408385031215612f5557612f54612992565b5b6000612f6385828601612be8565b9250506020612f7485828601612f29565b9150509250929050565b600067ffffffffffffffff821115612f9957612f98612d47565b5b612fa282612aa6565b9050602081019050919050565b6000612fc2612fbd84612f7e565b612da7565b905082815260208101848484011115612fde57612fdd612d42565b5b612fe9848285612df3565b509392505050565b600082601f83011261300657613005612c3d565b5b8135613016848260208601612faf565b91505092915050565b6000806000806080858703121561303957613038612992565b5b600061304787828801612be8565b945050602061305887828801612be8565b935050604061306987828801612b33565b925050606085013567ffffffffffffffff81111561308a57613089612997565b5b61309687828801612ff1565b91505092959194509250565b600080600080604085870312156130bc576130bb612992565b5b600085013567ffffffffffffffff8111156130da576130d9612997565b5b6130e687828801612c4c565b9450945050602085013567ffffffffffffffff81111561310957613108612997565b5b61311587828801612c4c565b925092505092959194509250565b6000806040838503121561313a57613139612992565b5b600061314885828601612be8565b925050602061315985828601612be8565b9150509250929050565b7f4e487b7100000000000000000000000000000000000000000000000000000000600052602260045260246000fd5b600060028204905060018216806131aa57607f821691505b602082108114156131be576131bd613163565b5b50919050565b7f4552433732313a20617070726f76656420717565727920666f72206e6f6e657860008201527f697374656e7420746f6b656e0000000000000000000000000000000000000000602082015250565b6000613220602c83612a62565b915061322b826131c4565b604082019050919050565b6000602082019050818103600083015261324f81613213565b9050919050565b7f4552433732313a20617070726f76616c20746f2063757272656e74206f776e6560008201527f7200000000000000000000000000000000000000000000000000000000000000602082015250565b60006132b2602183612a62565b91506132bd82613256565b604082019050919050565b600060208201905081810360008301526132e1816132a5565b9050919050565b7f4552433732313a20617070726f76652063616c6c6572206973206e6f74206f7760008201527f6e6572206e6f7220617070726f76656420666f7220616c6c0000000000000000602082015250565b6000613344603883612a62565b915061334f826132e8565b604082019050919050565b6000602082019050818103600083015261337381613337565b9050919050565b600081905092915050565b6000613391838561337a565b935061339e838584612df3565b82840190509392505050565b60006133b7828486613385565b91508190509392505050565b7f4552433732313a207472616e736665722063616c6c6572206973206e6f74206f60008201527f776e6572206e6f7220617070726f766564000000000000000000000000000000602082015250565b600061341f603183612a62565b915061342a826133c3565b604082019050919050565b6000602082019050818103600083015261344e81613412565b9050919050565b7f4552433732313a206f776e657220717565727920666f72206e6f6e657869737460008201527f656e7420746f6b656e0000000000000000000000000000000000000000000000602082015250565b60006134b1602983612a62565b91506134bc82613455565b604082019050919050565b600060208201905081810360008301526134e0816134a4565b9050919050565b7f4552433732313a2062616c616e636520717565727920666f7220746865207a6560008201527f726f206164647265737300000000000000000000000000000000000000000000602082015250565b6000613543602a83612a62565b915061354e826134e7565b604082019050919050565b6000602082019050818103600083015261357281613536565b9050919050565b7f54686973206973206e6f7420796f757220646f6d61696e000000000000000000600082015250565b60006135af601783612a62565b91506135ba82613579565b602082019050919050565b600060208201905081810360008301526135de816135a2565b9050919050565b7f45524337323155524953746f726167653a2055524920717565727920666f722060008201527f6e6f6e6578697374656e7420746f6b656e000000000000000000000000000000602082015250565b6000613641603183612a62565b915061364c826135e5565b604082019050919050565b6000602082019050818103600083015261367081613634565b9050919050565b600061368282612a57565b61368c818561337a565b935061369c818560208601612a73565b80840191505092915050565b60006136b48285613677565b91506136c08284613677565b91508190509392505050565b7f446f6d61696e20616c7265616479207265676973746572656400000000000000600082015250565b6000613702601983612a62565b915061370d826136cc565b602082019050919050565b60006020820190508181036000830152613731816136f5565b9050919050565b7f4e6f7420656e6f756768204d6174696320706169640000000000000000000000600082015250565b600061376e601583612a62565b915061377982613738565b602082019050919050565b6000602082019050818103600083015261379d81613761565b9050919050565b7f2e00000000000000000000000000000000000000000000000000000000000000600082015250565b60006137da60018361337a565b91506137e5826137a4565b600182019050919050565b60008190508160005260206000209050919050565b6000815461381281613192565b61381c818661337a565b9450600182166000811461383757600181146138485761387b565b60ff1983168652818601935061387b565b613851856137f0565b60005b8381101561387357815481890152600182019150602081019050613854565b838801955050505b50505092915050565b6000613891828587613385565b915061389c826137cd565b91506138a88284613805565b9150819050949350505050565b60006138c18286613805565b91506138cd8285613677565b91506138d98284613805565b9150819050949350505050565b7f7b226e616d65223a202200000000000000000000000000000000000000000000600082015250565b600061391c600a8361337a565b9150613927826138e6565b600a82019050919050565b7f222c20226465736372697074696f6e223a20224120646f6d61696e206f6e207460008201527f686520416c70616361206e616d652073657276696365222c2022696d6167652260208201527f3a2022646174613a696d6167652f7376672b786d6c3b6261736536342c000000604082015250565b60006139b4605d8361337a565b91506139bf82613932565b605d82019050919050565b7f222c226c656e677468223a220000000000000000000000000000000000000000600082015250565b6000613a00600c8361337a565b9150613a0b826139ca565b600c82019050919050565b7f227d000000000000000000000000000000000000000000000000000000000000600082015250565b6000613a4c60028361337a565b9150613a5782613a16565b600282019050919050565b6000613a6d8261390f565b9150613a798286613677565b9150613a84826139a7565b9150613a908285613677565b9150613a9b826139f3565b9150613aa78284613677565b9150613ab282613a3f565b9150819050949350505050565b7f646174613a6170706c69636174696f6e2f6a736f6e3b6261736536342c000000600082015250565b6000613af5601d8361337a565b9150613b0082613abf565b601d82019050919050565b6000613b1682613ae8565b9150613b228284613677565b915081905092915050565b7f446f6d61696e206d7573742061687665206d6f7265207468616e20302063686160008201527f7261637465727300000000000000000000000000000000000000000000000000602082015250565b6000613b89602783612a62565b9150613b9482613b2d565b604082019050919050565b60006020820190508181036000830152613bb881613b7c565b9050919050565b60006040820190508181036000830152613bd98185612ab7565b90508181036020830152613bed8184612ab7565b90509392505050565b7f4552433732313a206f70657261746f7220717565727920666f72206e6f6e657860008201527f697374656e7420746f6b656e0000000000000000000000000000000000000000602082015250565b6000613c52602c83612a62565b9150613c5d82613bf6565b604082019050919050565b60006020820190508181036000830152613c8181613c45565b9050919050565b7f4552433732313a207472616e736665722066726f6d20696e636f72726563742060008201527f6f776e6572000000000000000000000000000000000000000000000000000000602082015250565b6000613ce4602583612a62565b9150613cef82613c88565b604082019050919050565b60006020820190508181036000830152613d1381613cd7565b9050919050565b7f4552433732313a207472616e7366657220746f20746865207a65726f2061646460008201527f7265737300000000000000000000000000000000000000000000000000000000602082015250565b6000613d76602483612a62565b9150613d8182613d1a565b604082019050919050565b60006020820190508181036000830152613da581613d69565b9050919050565b7f4e487b7100000000000000000000000000000000000000000000000000000000600052601160045260246000fd5b6000613de682612b12565b9150613df183612b12565b925082821015613e0457613e03613dac565b5b828203905092915050565b6000613e1a82612b12565b9150613e2583612b12565b9250827fffffffffffffffffffffffffffffffffffffffffffffffffffffffffffffffff03821115613e5a57613e59613dac565b5b828201905092915050565b7f4552433732313a20617070726f766520746f2063616c6c657200000000000000600082015250565b6000613e9b601983612a62565b9150613ea682613e65565b602082019050919050565b60006020820190508181036000830152613eca81613e8e565b9050919050565b7f4552433732313a207472616e7366657220746f206e6f6e20455243373231526560008201527f63656976657220696d706c656d656e7465720000000000000000000000000000602082015250565b6000613f2d603283612a62565b9150613f3882613ed1565b604082019050919050565b60006020820190508181036000830152613f5c81613f20565b9050919050565b7f4552433732314d657461646174613a2055524920717565727920666f72206e6f60008201527f6e6578697374656e7420746f6b656e0000000000000000000000000000000000602082015250565b6000613fbf602f83612a62565b9150613fca82613f63565b604082019050919050565b60006020820190508181036000830152613fee81613fb2565b9050919050565b7f4e487b7100000000000000000000000000000000000000000000000000000000600052603260045260246000fd5b600061402f82612b12565b91507fffffffffffffffffffffffffffffffffffffffffffffffffffffffffffffffff82141561406257614061613dac565b5b600182019050919050565b7f4e487b7100000000000000000000000000000000000000000000000000000000600052601260045260246000fd5b60006140a782612b12565b91506140b283612b12565b9250826140c2576140c161406d565b5b828204905092915050565b60006140d882612b12565b91506140e383612b12565b9250826140f3576140f261406d565b5b828206905092915050565b600060808201905081810360008301526141188187612ab7565b9050818103602083015261412c8186612ab7565b905081810360408301526141408185612ab7565b905061414f6060830184612ee8565b95945050505050565b600061416382612b12565b915061416e83612b12565b9250817fffffffffffffffffffffffffffffffffffffffffffffffffffffffffffffffff04831182151516156141a7576141a6613dac565b5b828202905092915050565b7f45524337323155524953746f726167653a2055524920736574206f66206e6f6e60008201527f6578697374656e7420746f6b656e000000000000000000000000000000000000602082015250565b600061420e602e83612a62565b9150614219826141b2565b604082019050919050565b6000602082019050818103600083015261423d81614201565b9050919050565b600081519050919050565b600082825260208201905092915050565b600061426b82614244565b614275818561424f565b9350614285818560208601612a73565b61428e81612aa6565b840191505092915050565b60006080820190506142ae6000830187612ba7565b6142bb6020830186612ba7565b6142c86040830185612ee8565b81810360608301526142da8184614260565b905095945050505050565b6000815190506142f4816129c8565b92915050565b6000602082840312156143105761430f612992565b5b600061431e848285016142e5565b91505092915050565b7f4552433732313a206d696e7420746f20746865207a65726f2061646472657373600082015250565b600061435d602083612a62565b915061436882614327565b602082019050919050565b6000602082019050818103600083015261438c81614350565b9050919050565b7f4552433732313a20746f6b656e20616c7265616479206d696e74656400000000600082015250565b60006143c9601c83612a62565b91506143d482614393565b602082019050919050565b600060208201905081810360008301526143f8816143bc565b905091905056fe0a2d2d2d2d2d2d2d2d2d2d2d2d2d2d2d2d2d2d2d2d2d2d2d2d2d2d2d2d2d2d2d2d2d2d2d2d2d2d2d2d2d2d2d2d2d2d2d2d2d2d2d2d2d2d2d2d5265676973746572696e672025732e2573206f6e2074686520636f6e7472616374207769746820746f6b656e49442025642d2d2d2d2d2d2d2d2d2d2d2d2d2d2d2d2d2d2d2d2d2d2d2d2d2d2d2d2d2d2d2d2d2d2d2d2d2d2d2d2d2d2d2d2d2d2d2d2d2d2d2d2d2d2d2d0a4142434445464748494a4b4c4d4e4f505152535455565758595a6162636465666768696a6b6c6d6e6f707172737475767778797a303132333435363738392b2fa2646970667358221220cf413f9d8995fdf95d8ccdc43863b693e7643c67a48934703ca955976c8d0d0a64736f6c634300080a00333c73766720786d6c6e733d22687474703a2f2f7777772e77332e6f72672f323030302f737667222077696474683d2232373022206865696768743d22323730222066696c6c3d226e6f6e65223e3c706174682066696c6c3d2275726c282342292220643d224d302030683237307632373048307a222f3e3c646566733e3c66696c7465722069643d22412220636f6c6f722d696e746572706f6c6174696f6e2d66696c746572733d2273524742222066696c746572556e6974733d227573657253706163654f6e55736522206865696768743d22323730222077696474683d22323730223e3c666544726f70536861646f772064783d2230222064793d22312220737464446576696174696f6e3d22322220666c6f6f642d6f7061636974793d222e323235222077696474683d223230302522206865696768743d2232303025222f3e3c2f66696c7465723e3c2f646566733e3c7061746820643d224d37322e3836332034322e393439632d2e3636382d2e3338372d312e3432362d2e35392d322e3139372d2e3539732d312e3532392e3230342d322e3139372e35396c2d31302e30383120362e3033322d362e383520332e3933342d31302e30383120362e303332632d2e3636382e3338372d312e3432362e35392d322e3139372e3539732d312e3532392d2e3230342d322e3139372d2e35396c2d382e3031332d342e37323161342e353220342e35322030203020312d312e3538392d312e363136632d2e3338342d2e3636352d2e3539342d312e3431382d2e3630382d322e313837762d392e3331632d2e3031332d2e3737352e3138352d312e3533382e3537322d322e32303861342e323520342e323520302030203120312e3632352d312e3539356c372e3838342d342e3539632e3636382d2e33383720312e3432362d2e353920322e3139372d2e353973312e3532392e32303420322e3139372e35396c372e38383420342e353961342e353220342e353220302030203120312e35383920312e363136632e3338342e3636352e35393420312e3431382e36303820322e31383776362e3033326c362e38352d342e303635762d362e303332632e3031332d2e3737352d2e3138352d312e3533382d2e3537322d322e32303861342e323520342e32352030203020302d312e3632352d312e3539354c34312e3435362032342e3539632d2e3636382d2e3338372d312e3432362d2e35392d322e3139372d2e3539732d312e3532392e3230342d322e3139372e35396c2d31342e38363420382e36353561342e323520342e32352030203020302d312e36323520312e353935632d2e3338372e36372d2e35383520312e3433342d2e35373220322e3230387631372e343431632d2e3031332e3737352e31383520312e3533382e35373220322e32303861342e323520342e323520302030203020312e36323520312e3539356c31342e38363420382e363535632e3636382e33383720312e3432362e353920322e3139372e353973312e3532392d2e32303420322e3139372d2e35396c31302e3038312d352e39303120362e38352d342e3036352031302e3038312d352e393031632e3636382d2e33383720312e3432362d2e353920322e3139372d2e353973312e3532392e32303420322e3139372e35396c372e38383420342e353961342e353220342e353220302030203120312e35383920312e363136632e3338342e3636352e35393420312e3431382e36303820322e31383776392e333131632e3031332e3737352d2e31383520312e3533382d2e35373220322e32303861342e323520342e32352030203020312d312e36323520312e3539356c2d372e38383420342e373231632d2e3636382e3338372d312e3432362e35392d322e3139372e3539732d312e3532392d2e3230342d322e3139372d2e35396c2d372e3838342d342e353961342e353220342e35322030203020312d312e3538392d312e363136632d2e3338352d2e3636352d2e3539342d312e3431382d2e3630382d322e313837762d362e3033326c2d362e383520342e30363576362e303332632d2e3031332e3737352e31383520312e3533382e35373220322e32303861342e323520342e323520302030203020312e36323520312e3539356c31342e38363420382e363535632e3636382e33383720312e3432362e353920322e3139372e353973312e3532392d2e32303420322e3139372d2e35396c31342e3836342d382e363535632e3635372d2e33393420312e3230342d2e393520312e3538392d312e363136732e3539342d312e3431382e3630392d322e3138375635352e353338632e3031332d2e3737352d2e3138352d312e3533382d2e3537322d322e32303861342e323520342e32352030203020302d312e3632352d312e3539356c2d31342e3939332d382e3738367a222066696c6c3d2223666666222f3e3c646566733e3c6c696e6561724772616469656e742069643d2242222078313d2230222079313d2230222078323d22323730222079323d2232373022206772616469656e74556e6974733d227573657253706163654f6e557365223e3c73746f702073746f702d636f6c6f723d2223636235656565222f3e3c73746f70206f66667365743d2231222073746f702d636f6c6f723d2223306364376534222073746f702d6f7061636974793d222e3939222f3e3c2f6c696e6561724772616469656e743e3c2f646566733e3c7465787420783d2233322e352220793d223233312220666f6e742d73697a653d223237222066696c6c3d2223666666222066696c7465723d2275726c282341292220666f6e742d66616d696c793d22506c7573204a616b617274612053616e732c44656a6156752053616e732c4e6f746f20436f6c6f7220456d6f6a692c4170706c6520436f6c6f7220456d6f6a692c73616e732d73657269662220666f6e742d7765696768743d22626f6c64223e",
  "linkReferences": {},
  "deployedLinkReferences": {}
}